Archive member included to satisfy reference by file (symbol)

d:/clion/tools/gcc-arm-none-eabi-10.3-2021.10-win32/gcc-arm-none-eabi-10.3-2021.10/bin/../lib/gcc/arm-none-eabi/10.3.1/../../../../arm-none-eabi/lib/thumb/v7-m/nofp\libg.a(lib_a-errno.o)
                              CMakeFiles/test.elf.dir/Src/syscalls.c.obj (__errno)
d:/clion/tools/gcc-arm-none-eabi-10.3-2021.10-win32/gcc-arm-none-eabi-10.3-2021.10/bin/../lib/gcc/arm-none-eabi/10.3.1/../../../../arm-none-eabi/lib/thumb/v7-m/nofp\libg.a(lib_a-exit.o)
                              d:/clion/tools/gcc-arm-none-eabi-10.3-2021.10-win32/gcc-arm-none-eabi-10.3-2021.10/bin/../lib/gcc/arm-none-eabi/10.3.1/../../../../arm-none-eabi/lib/thumb/v7-m/nofp/crt0.o (exit)
d:/clion/tools/gcc-arm-none-eabi-10.3-2021.10-win32/gcc-arm-none-eabi-10.3-2021.10/bin/../lib/gcc/arm-none-eabi/10.3.1/../../../../arm-none-eabi/lib/thumb/v7-m/nofp\libg.a(lib_a-impure.o)
                              d:/clion/tools/gcc-arm-none-eabi-10.3-2021.10-win32/gcc-arm-none-eabi-10.3-2021.10/bin/../lib/gcc/arm-none-eabi/10.3.1/../../../../arm-none-eabi/lib/thumb/v7-m/nofp\libg.a(lib_a-exit.o) (_global_impure_ptr)
d:/clion/tools/gcc-arm-none-eabi-10.3-2021.10-win32/gcc-arm-none-eabi-10.3-2021.10/bin/../lib/gcc/arm-none-eabi/10.3.1/../../../../arm-none-eabi/lib/thumb/v7-m/nofp\libg.a(lib_a-init.o)
                              d:/clion/tools/gcc-arm-none-eabi-10.3-2021.10-win32/gcc-arm-none-eabi-10.3-2021.10/bin/../lib/gcc/arm-none-eabi/10.3.1/../../../../arm-none-eabi/lib/thumb/v7-m/nofp/crt0.o (__libc_init_array)
d:/clion/tools/gcc-arm-none-eabi-10.3-2021.10-win32/gcc-arm-none-eabi-10.3-2021.10/bin/../lib/gcc/arm-none-eabi/10.3.1/../../../../arm-none-eabi/lib/thumb/v7-m/nofp\libg.a(lib_a-memcpy.o)
                              CMakeFiles/test.elf.dir/FreeRTOS_M3_gcc/src/queue.c.obj (memcpy)
d:/clion/tools/gcc-arm-none-eabi-10.3-2021.10-win32/gcc-arm-none-eabi-10.3-2021.10/bin/../lib/gcc/arm-none-eabi/10.3.1/../../../../arm-none-eabi/lib/thumb/v7-m/nofp\libg.a(lib_a-memset.o)
                              d:/clion/tools/gcc-arm-none-eabi-10.3-2021.10-win32/gcc-arm-none-eabi-10.3-2021.10/bin/../lib/gcc/arm-none-eabi/10.3.1/../../../../arm-none-eabi/lib/thumb/v7-m/nofp/crt0.o (memset)
d:/clion/tools/gcc-arm-none-eabi-10.3-2021.10-win32/gcc-arm-none-eabi-10.3-2021.10/bin/../lib/gcc/arm-none-eabi/10.3.1/../../../../arm-none-eabi/lib/thumb/v7-m/nofp\libg.a(lib_a-puts.o)
                              CMakeFiles/test.elf.dir/Src/main.c.obj (puts)
d:/clion/tools/gcc-arm-none-eabi-10.3-2021.10-win32/gcc-arm-none-eabi-10.3-2021.10/bin/../lib/gcc/arm-none-eabi/10.3.1/../../../../arm-none-eabi/lib/thumb/v7-m/nofp\libg.a(lib_a-sprintf.o)
                              CMakeFiles/test.elf.dir/FreeRTOS_M3_gcc/src/tasks.c.obj (sprintf)
d:/clion/tools/gcc-arm-none-eabi-10.3-2021.10-win32/gcc-arm-none-eabi-10.3-2021.10/bin/../lib/gcc/arm-none-eabi/10.3.1/../../../../arm-none-eabi/lib/thumb/v7-m/nofp\libg.a(lib_a-strcpy.o)
                              CMakeFiles/test.elf.dir/FreeRTOS_M3_gcc/src/tasks.c.obj (strcpy)
d:/clion/tools/gcc-arm-none-eabi-10.3-2021.10-win32/gcc-arm-none-eabi-10.3-2021.10/bin/../lib/gcc/arm-none-eabi/10.3.1/../../../../arm-none-eabi/lib/thumb/v7-m/nofp\libg.a(lib_a-strlen-stub.o)
                              CMakeFiles/test.elf.dir/FreeRTOS_M3_gcc/src/tasks.c.obj (strlen)
d:/clion/tools/gcc-arm-none-eabi-10.3-2021.10-win32/gcc-arm-none-eabi-10.3-2021.10/bin/../lib/gcc/arm-none-eabi/10.3.1/../../../../arm-none-eabi/lib/thumb/v7-m/nofp\libg.a(lib_a-svfprintf.o)
                              d:/clion/tools/gcc-arm-none-eabi-10.3-2021.10-win32/gcc-arm-none-eabi-10.3-2021.10/bin/../lib/gcc/arm-none-eabi/10.3.1/../../../../arm-none-eabi/lib/thumb/v7-m/nofp\libg.a(lib_a-sprintf.o) (_svfprintf_r)
d:/clion/tools/gcc-arm-none-eabi-10.3-2021.10-win32/gcc-arm-none-eabi-10.3-2021.10/bin/../lib/gcc/arm-none-eabi/10.3.1/../../../../arm-none-eabi/lib/thumb/v7-m/nofp\libg.a(lib_a-__call_atexit.o)
                              d:/clion/tools/gcc-arm-none-eabi-10.3-2021.10-win32/gcc-arm-none-eabi-10.3-2021.10/bin/../lib/gcc/arm-none-eabi/10.3.1/../../../../arm-none-eabi/lib/thumb/v7-m/nofp\libg.a(lib_a-exit.o) (__call_exitprocs)
d:/clion/tools/gcc-arm-none-eabi-10.3-2021.10-win32/gcc-arm-none-eabi-10.3-2021.10/bin/../lib/gcc/arm-none-eabi/10.3.1/../../../../arm-none-eabi/lib/thumb/v7-m/nofp\libg.a(lib_a-atexit.o)
                              d:/clion/tools/gcc-arm-none-eabi-10.3-2021.10-win32/gcc-arm-none-eabi-10.3-2021.10/bin/../lib/gcc/arm-none-eabi/10.3.1/../../../../arm-none-eabi/lib/thumb/v7-m/nofp\libg.a(lib_a-__call_atexit.o) (atexit)
d:/clion/tools/gcc-arm-none-eabi-10.3-2021.10-win32/gcc-arm-none-eabi-10.3-2021.10/bin/../lib/gcc/arm-none-eabi/10.3.1/../../../../arm-none-eabi/lib/thumb/v7-m/nofp\libg.a(lib_a-dtoa.o)
                              d:/clion/tools/gcc-arm-none-eabi-10.3-2021.10-win32/gcc-arm-none-eabi-10.3-2021.10/bin/../lib/gcc/arm-none-eabi/10.3.1/../../../../arm-none-eabi/lib/thumb/v7-m/nofp\libg.a(lib_a-svfprintf.o) (_dtoa_r)
d:/clion/tools/gcc-arm-none-eabi-10.3-2021.10-win32/gcc-arm-none-eabi-10.3-2021.10/bin/../lib/gcc/arm-none-eabi/10.3.1/../../../../arm-none-eabi/lib/thumb/v7-m/nofp\libg.a(lib_a-findfp.o)
                              d:/clion/tools/gcc-arm-none-eabi-10.3-2021.10-win32/gcc-arm-none-eabi-10.3-2021.10/bin/../lib/gcc/arm-none-eabi/10.3.1/../../../../arm-none-eabi/lib/thumb/v7-m/nofp\libg.a(lib_a-puts.o) (__sinit)
d:/clion/tools/gcc-arm-none-eabi-10.3-2021.10-win32/gcc-arm-none-eabi-10.3-2021.10/bin/../lib/gcc/arm-none-eabi/10.3.1/../../../../arm-none-eabi/lib/thumb/v7-m/nofp\libg.a(lib_a-fini.o)
                              d:/clion/tools/gcc-arm-none-eabi-10.3-2021.10-win32/gcc-arm-none-eabi-10.3-2021.10/bin/../lib/gcc/arm-none-eabi/10.3.1/../../../../arm-none-eabi/lib/thumb/v7-m/nofp\libg.a(lib_a-__call_atexit.o) (__libc_fini_array)
d:/clion/tools/gcc-arm-none-eabi-10.3-2021.10-win32/gcc-arm-none-eabi-10.3-2021.10/bin/../lib/gcc/arm-none-eabi/10.3.1/../../../../arm-none-eabi/lib/thumb/v7-m/nofp\libg.a(lib_a-freer.o)
                              d:/clion/tools/gcc-arm-none-eabi-10.3-2021.10-win32/gcc-arm-none-eabi-10.3-2021.10/bin/../lib/gcc/arm-none-eabi/10.3.1/../../../../arm-none-eabi/lib/thumb/v7-m/nofp\libg.a(lib_a-svfprintf.o) (_free_r)
d:/clion/tools/gcc-arm-none-eabi-10.3-2021.10-win32/gcc-arm-none-eabi-10.3-2021.10/bin/../lib/gcc/arm-none-eabi/10.3.1/../../../../arm-none-eabi/lib/thumb/v7-m/nofp\libg.a(lib_a-fvwrite.o)
                              d:/clion/tools/gcc-arm-none-eabi-10.3-2021.10-win32/gcc-arm-none-eabi-10.3-2021.10/bin/../lib/gcc/arm-none-eabi/10.3.1/../../../../arm-none-eabi/lib/thumb/v7-m/nofp\libg.a(lib_a-puts.o) (__sfvwrite_r)
d:/clion/tools/gcc-arm-none-eabi-10.3-2021.10-win32/gcc-arm-none-eabi-10.3-2021.10/bin/../lib/gcc/arm-none-eabi/10.3.1/../../../../arm-none-eabi/lib/thumb/v7-m/nofp\libg.a(lib_a-fwalk.o)
                              d:/clion/tools/gcc-arm-none-eabi-10.3-2021.10-win32/gcc-arm-none-eabi-10.3-2021.10/bin/../lib/gcc/arm-none-eabi/10.3.1/../../../../arm-none-eabi/lib/thumb/v7-m/nofp\libg.a(lib_a-findfp.o) (_fwalk)
d:/clion/tools/gcc-arm-none-eabi-10.3-2021.10-win32/gcc-arm-none-eabi-10.3-2021.10/bin/../lib/gcc/arm-none-eabi/10.3.1/../../../../arm-none-eabi/lib/thumb/v7-m/nofp\libg.a(lib_a-localeconv.o)
                              d:/clion/tools/gcc-arm-none-eabi-10.3-2021.10-win32/gcc-arm-none-eabi-10.3-2021.10/bin/../lib/gcc/arm-none-eabi/10.3.1/../../../../arm-none-eabi/lib/thumb/v7-m/nofp\libg.a(lib_a-svfprintf.o) (_localeconv_r)
d:/clion/tools/gcc-arm-none-eabi-10.3-2021.10-win32/gcc-arm-none-eabi-10.3-2021.10/bin/../lib/gcc/arm-none-eabi/10.3.1/../../../../arm-none-eabi/lib/thumb/v7-m/nofp\libg.a(lib_a-lock.o)
                              d:/clion/tools/gcc-arm-none-eabi-10.3-2021.10-win32/gcc-arm-none-eabi-10.3-2021.10/bin/../lib/gcc/arm-none-eabi/10.3.1/../../../../arm-none-eabi/lib/thumb/v7-m/nofp\libg.a(lib_a-findfp.o) (__retarget_lock_init_recursive)
d:/clion/tools/gcc-arm-none-eabi-10.3-2021.10-win32/gcc-arm-none-eabi-10.3-2021.10/bin/../lib/gcc/arm-none-eabi/10.3.1/../../../../arm-none-eabi/lib/thumb/v7-m/nofp\libg.a(lib_a-mallocr.o)
                              d:/clion/tools/gcc-arm-none-eabi-10.3-2021.10-win32/gcc-arm-none-eabi-10.3-2021.10/bin/../lib/gcc/arm-none-eabi/10.3.1/../../../../arm-none-eabi/lib/thumb/v7-m/nofp\libg.a(lib_a-svfprintf.o) (_malloc_r)
d:/clion/tools/gcc-arm-none-eabi-10.3-2021.10-win32/gcc-arm-none-eabi-10.3-2021.10/bin/../lib/gcc/arm-none-eabi/10.3.1/../../../../arm-none-eabi/lib/thumb/v7-m/nofp\libg.a(lib_a-memchr-stub.o)
                              d:/clion/tools/gcc-arm-none-eabi-10.3-2021.10-win32/gcc-arm-none-eabi-10.3-2021.10/bin/../lib/gcc/arm-none-eabi/10.3.1/../../../../arm-none-eabi/lib/thumb/v7-m/nofp\libg.a(lib_a-svfprintf.o) (memchr)
d:/clion/tools/gcc-arm-none-eabi-10.3-2021.10-win32/gcc-arm-none-eabi-10.3-2021.10/bin/../lib/gcc/arm-none-eabi/10.3.1/../../../../arm-none-eabi/lib/thumb/v7-m/nofp\libg.a(lib_a-memmove.o)
                              d:/clion/tools/gcc-arm-none-eabi-10.3-2021.10-win32/gcc-arm-none-eabi-10.3-2021.10/bin/../lib/gcc/arm-none-eabi/10.3.1/../../../../arm-none-eabi/lib/thumb/v7-m/nofp\libg.a(lib_a-fvwrite.o) (memmove)
d:/clion/tools/gcc-arm-none-eabi-10.3-2021.10-win32/gcc-arm-none-eabi-10.3-2021.10/bin/../lib/gcc/arm-none-eabi/10.3.1/../../../../arm-none-eabi/lib/thumb/v7-m/nofp\libg.a(lib_a-mlock.o)
                              d:/clion/tools/gcc-arm-none-eabi-10.3-2021.10-win32/gcc-arm-none-eabi-10.3-2021.10/bin/../lib/gcc/arm-none-eabi/10.3.1/../../../../arm-none-eabi/lib/thumb/v7-m/nofp\libg.a(lib_a-freer.o) (__malloc_lock)
d:/clion/tools/gcc-arm-none-eabi-10.3-2021.10-win32/gcc-arm-none-eabi-10.3-2021.10/bin/../lib/gcc/arm-none-eabi/10.3.1/../../../../arm-none-eabi/lib/thumb/v7-m/nofp\libg.a(lib_a-mprec.o)
                              d:/clion/tools/gcc-arm-none-eabi-10.3-2021.10-win32/gcc-arm-none-eabi-10.3-2021.10/bin/../lib/gcc/arm-none-eabi/10.3.1/../../../../arm-none-eabi/lib/thumb/v7-m/nofp\libg.a(lib_a-dtoa.o) (_Balloc)
d:/clion/tools/gcc-arm-none-eabi-10.3-2021.10-win32/gcc-arm-none-eabi-10.3-2021.10/bin/../lib/gcc/arm-none-eabi/10.3.1/../../../../arm-none-eabi/lib/thumb/v7-m/nofp\libg.a(lib_a-reallocr.o)
                              d:/clion/tools/gcc-arm-none-eabi-10.3-2021.10-win32/gcc-arm-none-eabi-10.3-2021.10/bin/../lib/gcc/arm-none-eabi/10.3.1/../../../../arm-none-eabi/lib/thumb/v7-m/nofp\libg.a(lib_a-fvwrite.o) (_realloc_r)
d:/clion/tools/gcc-arm-none-eabi-10.3-2021.10-win32/gcc-arm-none-eabi-10.3-2021.10/bin/../lib/gcc/arm-none-eabi/10.3.1/../../../../arm-none-eabi/lib/thumb/v7-m/nofp\libg.a(lib_a-s_frexp.o)
                              d:/clion/tools/gcc-arm-none-eabi-10.3-2021.10-win32/gcc-arm-none-eabi-10.3-2021.10/bin/../lib/gcc/arm-none-eabi/10.3.1/../../../../arm-none-eabi/lib/thumb/v7-m/nofp\libg.a(lib_a-svfprintf.o) (frexp)
d:/clion/tools/gcc-arm-none-eabi-10.3-2021.10-win32/gcc-arm-none-eabi-10.3-2021.10/bin/../lib/gcc/arm-none-eabi/10.3.1/../../../../arm-none-eabi/lib/thumb/v7-m/nofp\libg.a(lib_a-sbrkr.o)
                              d:/clion/tools/gcc-arm-none-eabi-10.3-2021.10-win32/gcc-arm-none-eabi-10.3-2021.10/bin/../lib/gcc/arm-none-eabi/10.3.1/../../../../arm-none-eabi/lib/thumb/v7-m/nofp\libg.a(lib_a-freer.o) (_sbrk_r)
d:/clion/tools/gcc-arm-none-eabi-10.3-2021.10-win32/gcc-arm-none-eabi-10.3-2021.10/bin/../lib/gcc/arm-none-eabi/10.3.1/../../../../arm-none-eabi/lib/thumb/v7-m/nofp\libg.a(lib_a-stdio.o)
                              d:/clion/tools/gcc-arm-none-eabi-10.3-2021.10-win32/gcc-arm-none-eabi-10.3-2021.10/bin/../lib/gcc/arm-none-eabi/10.3.1/../../../../arm-none-eabi/lib/thumb/v7-m/nofp\libg.a(lib_a-findfp.o) (__sread)
d:/clion/tools/gcc-arm-none-eabi-10.3-2021.10-win32/gcc-arm-none-eabi-10.3-2021.10/bin/../lib/gcc/arm-none-eabi/10.3.1/../../../../arm-none-eabi/lib/thumb/v7-m/nofp\libg.a(lib_a-strncpy.o)
                              d:/clion/tools/gcc-arm-none-eabi-10.3-2021.10-win32/gcc-arm-none-eabi-10.3-2021.10/bin/../lib/gcc/arm-none-eabi/10.3.1/../../../../arm-none-eabi/lib/thumb/v7-m/nofp\libg.a(lib_a-svfprintf.o) (strncpy)
d:/clion/tools/gcc-arm-none-eabi-10.3-2021.10-win32/gcc-arm-none-eabi-10.3-2021.10/bin/../lib/gcc/arm-none-eabi/10.3.1/../../../../arm-none-eabi/lib/thumb/v7-m/nofp\libg.a(lib_a-svfiprintf.o)
                              d:/clion/tools/gcc-arm-none-eabi-10.3-2021.10-win32/gcc-arm-none-eabi-10.3-2021.10/bin/../lib/gcc/arm-none-eabi/10.3.1/../../../../arm-none-eabi/lib/thumb/v7-m/nofp\libg.a(lib_a-svfprintf.o) (__ssprint_r)
d:/clion/tools/gcc-arm-none-eabi-10.3-2021.10-win32/gcc-arm-none-eabi-10.3-2021.10/bin/../lib/gcc/arm-none-eabi/10.3.1/../../../../arm-none-eabi/lib/thumb/v7-m/nofp\libg.a(lib_a-writer.o)
                              d:/clion/tools/gcc-arm-none-eabi-10.3-2021.10-win32/gcc-arm-none-eabi-10.3-2021.10/bin/../lib/gcc/arm-none-eabi/10.3.1/../../../../arm-none-eabi/lib/thumb/v7-m/nofp\libg.a(lib_a-stdio.o) (_write_r)
d:/clion/tools/gcc-arm-none-eabi-10.3-2021.10-win32/gcc-arm-none-eabi-10.3-2021.10/bin/../lib/gcc/arm-none-eabi/10.3.1/../../../../arm-none-eabi/lib/thumb/v7-m/nofp\libg.a(lib_a-wsetup.o)
                              d:/clion/tools/gcc-arm-none-eabi-10.3-2021.10-win32/gcc-arm-none-eabi-10.3-2021.10/bin/../lib/gcc/arm-none-eabi/10.3.1/../../../../arm-none-eabi/lib/thumb/v7-m/nofp\libg.a(lib_a-fvwrite.o) (__swsetup_r)
d:/clion/tools/gcc-arm-none-eabi-10.3-2021.10-win32/gcc-arm-none-eabi-10.3-2021.10/bin/../lib/gcc/arm-none-eabi/10.3.1/../../../../arm-none-eabi/lib/thumb/v7-m/nofp\libg.a(lib_a-__atexit.o)
                              d:/clion/tools/gcc-arm-none-eabi-10.3-2021.10-win32/gcc-arm-none-eabi-10.3-2021.10/bin/../lib/gcc/arm-none-eabi/10.3.1/../../../../arm-none-eabi/lib/thumb/v7-m/nofp\libg.a(lib_a-atexit.o) (__register_exitproc)
d:/clion/tools/gcc-arm-none-eabi-10.3-2021.10-win32/gcc-arm-none-eabi-10.3-2021.10/bin/../lib/gcc/arm-none-eabi/10.3.1/../../../../arm-none-eabi/lib/thumb/v7-m/nofp\libg.a(lib_a-assert.o)
                              d:/clion/tools/gcc-arm-none-eabi-10.3-2021.10-win32/gcc-arm-none-eabi-10.3-2021.10/bin/../lib/gcc/arm-none-eabi/10.3.1/../../../../arm-none-eabi/lib/thumb/v7-m/nofp\libg.a(lib_a-dtoa.o) (__assert_func)
d:/clion/tools/gcc-arm-none-eabi-10.3-2021.10-win32/gcc-arm-none-eabi-10.3-2021.10/bin/../lib/gcc/arm-none-eabi/10.3.1/../../../../arm-none-eabi/lib/thumb/v7-m/nofp\libg.a(lib_a-callocr.o)
                              d:/clion/tools/gcc-arm-none-eabi-10.3-2021.10-win32/gcc-arm-none-eabi-10.3-2021.10/bin/../lib/gcc/arm-none-eabi/10.3.1/../../../../arm-none-eabi/lib/thumb/v7-m/nofp\libg.a(lib_a-mprec.o) (_calloc_r)
d:/clion/tools/gcc-arm-none-eabi-10.3-2021.10-win32/gcc-arm-none-eabi-10.3-2021.10/bin/../lib/gcc/arm-none-eabi/10.3.1/../../../../arm-none-eabi/lib/thumb/v7-m/nofp\libg.a(lib_a-closer.o)
                              d:/clion/tools/gcc-arm-none-eabi-10.3-2021.10-win32/gcc-arm-none-eabi-10.3-2021.10/bin/../lib/gcc/arm-none-eabi/10.3.1/../../../../arm-none-eabi/lib/thumb/v7-m/nofp\libg.a(lib_a-stdio.o) (_close_r)
d:/clion/tools/gcc-arm-none-eabi-10.3-2021.10-win32/gcc-arm-none-eabi-10.3-2021.10/bin/../lib/gcc/arm-none-eabi/10.3.1/../../../../arm-none-eabi/lib/thumb/v7-m/nofp\libg.a(lib_a-fclose.o)
                              d:/clion/tools/gcc-arm-none-eabi-10.3-2021.10-win32/gcc-arm-none-eabi-10.3-2021.10/bin/../lib/gcc/arm-none-eabi/10.3.1/../../../../arm-none-eabi/lib/thumb/v7-m/nofp\libg.a(lib_a-findfp.o) (_fclose_r)
d:/clion/tools/gcc-arm-none-eabi-10.3-2021.10-win32/gcc-arm-none-eabi-10.3-2021.10/bin/../lib/gcc/arm-none-eabi/10.3.1/../../../../arm-none-eabi/lib/thumb/v7-m/nofp\libg.a(lib_a-fflush.o)
                              d:/clion/tools/gcc-arm-none-eabi-10.3-2021.10-win32/gcc-arm-none-eabi-10.3-2021.10/bin/../lib/gcc/arm-none-eabi/10.3.1/../../../../arm-none-eabi/lib/thumb/v7-m/nofp\libg.a(lib_a-fclose.o) (__sflush_r)
d:/clion/tools/gcc-arm-none-eabi-10.3-2021.10-win32/gcc-arm-none-eabi-10.3-2021.10/bin/../lib/gcc/arm-none-eabi/10.3.1/../../../../arm-none-eabi/lib/thumb/v7-m/nofp\libg.a(lib_a-fiprintf.o)
                              d:/clion/tools/gcc-arm-none-eabi-10.3-2021.10-win32/gcc-arm-none-eabi-10.3-2021.10/bin/../lib/gcc/arm-none-eabi/10.3.1/../../../../arm-none-eabi/lib/thumb/v7-m/nofp\libg.a(lib_a-assert.o) (fiprintf)
d:/clion/tools/gcc-arm-none-eabi-10.3-2021.10-win32/gcc-arm-none-eabi-10.3-2021.10/bin/../lib/gcc/arm-none-eabi/10.3.1/../../../../arm-none-eabi/lib/thumb/v7-m/nofp\libg.a(lib_a-locale.o)
                              d:/clion/tools/gcc-arm-none-eabi-10.3-2021.10-win32/gcc-arm-none-eabi-10.3-2021.10/bin/../lib/gcc/arm-none-eabi/10.3.1/../../../../arm-none-eabi/lib/thumb/v7-m/nofp\libg.a(lib_a-localeconv.o) (__global_locale)
d:/clion/tools/gcc-arm-none-eabi-10.3-2021.10-win32/gcc-arm-none-eabi-10.3-2021.10/bin/../lib/gcc/arm-none-eabi/10.3.1/../../../../arm-none-eabi/lib/thumb/v7-m/nofp\libg.a(lib_a-lseekr.o)
                              d:/clion/tools/gcc-arm-none-eabi-10.3-2021.10-win32/gcc-arm-none-eabi-10.3-2021.10/bin/../lib/gcc/arm-none-eabi/10.3.1/../../../../arm-none-eabi/lib/thumb/v7-m/nofp\libg.a(lib_a-stdio.o) (_lseek_r)
d:/clion/tools/gcc-arm-none-eabi-10.3-2021.10-win32/gcc-arm-none-eabi-10.3-2021.10/bin/../lib/gcc/arm-none-eabi/10.3.1/../../../../arm-none-eabi/lib/thumb/v7-m/nofp\libg.a(lib_a-makebuf.o)
                              d:/clion/tools/gcc-arm-none-eabi-10.3-2021.10-win32/gcc-arm-none-eabi-10.3-2021.10/bin/../lib/gcc/arm-none-eabi/10.3.1/../../../../arm-none-eabi/lib/thumb/v7-m/nofp\libg.a(lib_a-wsetup.o) (__smakebuf_r)
d:/clion/tools/gcc-arm-none-eabi-10.3-2021.10-win32/gcc-arm-none-eabi-10.3-2021.10/bin/../lib/gcc/arm-none-eabi/10.3.1/../../../../arm-none-eabi/lib/thumb/v7-m/nofp\libg.a(lib_a-mbtowc_r.o)
                              d:/clion/tools/gcc-arm-none-eabi-10.3-2021.10-win32/gcc-arm-none-eabi-10.3-2021.10/bin/../lib/gcc/arm-none-eabi/10.3.1/../../../../arm-none-eabi/lib/thumb/v7-m/nofp\libg.a(lib_a-locale.o) (__ascii_mbtowc)
d:/clion/tools/gcc-arm-none-eabi-10.3-2021.10-win32/gcc-arm-none-eabi-10.3-2021.10/bin/../lib/gcc/arm-none-eabi/10.3.1/../../../../arm-none-eabi/lib/thumb/v7-m/nofp\libg.a(lib_a-readr.o)
                              d:/clion/tools/gcc-arm-none-eabi-10.3-2021.10-win32/gcc-arm-none-eabi-10.3-2021.10/bin/../lib/gcc/arm-none-eabi/10.3.1/../../../../arm-none-eabi/lib/thumb/v7-m/nofp\libg.a(lib_a-stdio.o) (_read_r)
d:/clion/tools/gcc-arm-none-eabi-10.3-2021.10-win32/gcc-arm-none-eabi-10.3-2021.10/bin/../lib/gcc/arm-none-eabi/10.3.1/../../../../arm-none-eabi/lib/thumb/v7-m/nofp\libg.a(lib_a-reent.o)
                              d:/clion/tools/gcc-arm-none-eabi-10.3-2021.10-win32/gcc-arm-none-eabi-10.3-2021.10/bin/../lib/gcc/arm-none-eabi/10.3.1/../../../../arm-none-eabi/lib/thumb/v7-m/nofp\libg.a(lib_a-sbrkr.o) (errno)
d:/clion/tools/gcc-arm-none-eabi-10.3-2021.10-win32/gcc-arm-none-eabi-10.3-2021.10/bin/../lib/gcc/arm-none-eabi/10.3.1/../../../../arm-none-eabi/lib/thumb/v7-m/nofp\libg.a(lib_a-strcmp.o)
                              d:/clion/tools/gcc-arm-none-eabi-10.3-2021.10-win32/gcc-arm-none-eabi-10.3-2021.10/bin/../lib/gcc/arm-none-eabi/10.3.1/../../../../arm-none-eabi/lib/thumb/v7-m/nofp\libg.a(lib_a-locale.o) (strcmp)
d:/clion/tools/gcc-arm-none-eabi-10.3-2021.10-win32/gcc-arm-none-eabi-10.3-2021.10/bin/../lib/gcc/arm-none-eabi/10.3.1/../../../../arm-none-eabi/lib/thumb/v7-m/nofp\libg.a(lib_a-vfiprintf.o)
                              d:/clion/tools/gcc-arm-none-eabi-10.3-2021.10-win32/gcc-arm-none-eabi-10.3-2021.10/bin/../lib/gcc/arm-none-eabi/10.3.1/../../../../arm-none-eabi/lib/thumb/v7-m/nofp\libg.a(lib_a-fiprintf.o) (_vfiprintf_r)
d:/clion/tools/gcc-arm-none-eabi-10.3-2021.10-win32/gcc-arm-none-eabi-10.3-2021.10/bin/../lib/gcc/arm-none-eabi/10.3.1/../../../../arm-none-eabi/lib/thumb/v7-m/nofp\libg.a(lib_a-wctomb_r.o)
                              d:/clion/tools/gcc-arm-none-eabi-10.3-2021.10-win32/gcc-arm-none-eabi-10.3-2021.10/bin/../lib/gcc/arm-none-eabi/10.3.1/../../../../arm-none-eabi/lib/thumb/v7-m/nofp\libg.a(lib_a-locale.o) (__ascii_wctomb)
d:/clion/tools/gcc-arm-none-eabi-10.3-2021.10-win32/gcc-arm-none-eabi-10.3-2021.10/bin/../lib/gcc/arm-none-eabi/10.3.1/../../../../arm-none-eabi/lib/thumb/v7-m/nofp\libg.a(lib_a-abort.o)
                              d:/clion/tools/gcc-arm-none-eabi-10.3-2021.10-win32/gcc-arm-none-eabi-10.3-2021.10/bin/../lib/gcc/arm-none-eabi/10.3.1/../../../../arm-none-eabi/lib/thumb/v7-m/nofp\libg.a(lib_a-assert.o) (abort)
d:/clion/tools/gcc-arm-none-eabi-10.3-2021.10-win32/gcc-arm-none-eabi-10.3-2021.10/bin/../lib/gcc/arm-none-eabi/10.3.1/../../../../arm-none-eabi/lib/thumb/v7-m/nofp\libg.a(lib_a-ctype_.o)
                              d:/clion/tools/gcc-arm-none-eabi-10.3-2021.10-win32/gcc-arm-none-eabi-10.3-2021.10/bin/../lib/gcc/arm-none-eabi/10.3.1/../../../../arm-none-eabi/lib/thumb/v7-m/nofp\libg.a(lib_a-locale.o) (_ctype_)
d:/clion/tools/gcc-arm-none-eabi-10.3-2021.10-win32/gcc-arm-none-eabi-10.3-2021.10/bin/../lib/gcc/arm-none-eabi/10.3.1/../../../../arm-none-eabi/lib/thumb/v7-m/nofp\libg.a(lib_a-fputwc.o)
                              d:/clion/tools/gcc-arm-none-eabi-10.3-2021.10-win32/gcc-arm-none-eabi-10.3-2021.10/bin/../lib/gcc/arm-none-eabi/10.3.1/../../../../arm-none-eabi/lib/thumb/v7-m/nofp\libg.a(lib_a-vfiprintf.o) (_fputwc_r)
d:/clion/tools/gcc-arm-none-eabi-10.3-2021.10-win32/gcc-arm-none-eabi-10.3-2021.10/bin/../lib/gcc/arm-none-eabi/10.3.1/../../../../arm-none-eabi/lib/thumb/v7-m/nofp\libg.a(lib_a-fstatr.o)
                              d:/clion/tools/gcc-arm-none-eabi-10.3-2021.10-win32/gcc-arm-none-eabi-10.3-2021.10/bin/../lib/gcc/arm-none-eabi/10.3.1/../../../../arm-none-eabi/lib/thumb/v7-m/nofp\libg.a(lib_a-makebuf.o) (_fstat_r)
d:/clion/tools/gcc-arm-none-eabi-10.3-2021.10-win32/gcc-arm-none-eabi-10.3-2021.10/bin/../lib/gcc/arm-none-eabi/10.3.1/../../../../arm-none-eabi/lib/thumb/v7-m/nofp\libg.a(lib_a-isattyr.o)
                              d:/clion/tools/gcc-arm-none-eabi-10.3-2021.10-win32/gcc-arm-none-eabi-10.3-2021.10/bin/../lib/gcc/arm-none-eabi/10.3.1/../../../../arm-none-eabi/lib/thumb/v7-m/nofp\libg.a(lib_a-makebuf.o) (_isatty_r)
d:/clion/tools/gcc-arm-none-eabi-10.3-2021.10-win32/gcc-arm-none-eabi-10.3-2021.10/bin/../lib/gcc/arm-none-eabi/10.3.1/../../../../arm-none-eabi/lib/thumb/v7-m/nofp\libg.a(lib_a-signal.o)
                              d:/clion/tools/gcc-arm-none-eabi-10.3-2021.10-win32/gcc-arm-none-eabi-10.3-2021.10/bin/../lib/gcc/arm-none-eabi/10.3.1/../../../../arm-none-eabi/lib/thumb/v7-m/nofp\libg.a(lib_a-abort.o) (raise)
d:/clion/tools/gcc-arm-none-eabi-10.3-2021.10-win32/gcc-arm-none-eabi-10.3-2021.10/bin/../lib/gcc/arm-none-eabi/10.3.1/../../../../arm-none-eabi/lib/thumb/v7-m/nofp\libg.a(lib_a-signalr.o)
                              d:/clion/tools/gcc-arm-none-eabi-10.3-2021.10-win32/gcc-arm-none-eabi-10.3-2021.10/bin/../lib/gcc/arm-none-eabi/10.3.1/../../../../arm-none-eabi/lib/thumb/v7-m/nofp\libg.a(lib_a-signal.o) (_kill_r)
d:/clion/tools/gcc-arm-none-eabi-10.3-2021.10-win32/gcc-arm-none-eabi-10.3-2021.10/bin/../lib/gcc/arm-none-eabi/10.3.1/../../../../arm-none-eabi/lib/thumb/v7-m/nofp\libg.a(lib_a-wbuf.o)
                              d:/clion/tools/gcc-arm-none-eabi-10.3-2021.10-win32/gcc-arm-none-eabi-10.3-2021.10/bin/../lib/gcc/arm-none-eabi/10.3.1/../../../../arm-none-eabi/lib/thumb/v7-m/nofp\libg.a(lib_a-fputwc.o) (__swbuf_r)
d:/clion/tools/gcc-arm-none-eabi-10.3-2021.10-win32/gcc-arm-none-eabi-10.3-2021.10/bin/../lib/gcc/arm-none-eabi/10.3.1/../../../../arm-none-eabi/lib/thumb/v7-m/nofp\libg.a(lib_a-wcrtomb.o)
                              d:/clion/tools/gcc-arm-none-eabi-10.3-2021.10-win32/gcc-arm-none-eabi-10.3-2021.10/bin/../lib/gcc/arm-none-eabi/10.3.1/../../../../arm-none-eabi/lib/thumb/v7-m/nofp\libg.a(lib_a-fputwc.o) (_wcrtomb_r)
d:/clion/tools/gcc-arm-none-eabi-10.3-2021.10-win32/gcc-arm-none-eabi-10.3-2021.10/bin/../lib/gcc/arm-none-eabi/10.3.1/thumb/v7-m/nofp\libgcc.a(_arm_muldf3.o)
                              d:/clion/tools/gcc-arm-none-eabi-10.3-2021.10-win32/gcc-arm-none-eabi-10.3-2021.10/bin/../lib/gcc/arm-none-eabi/10.3.1/../../../../arm-none-eabi/lib/thumb/v7-m/nofp\libg.a(lib_a-svfprintf.o) (__aeabi_dmul)
d:/clion/tools/gcc-arm-none-eabi-10.3-2021.10-win32/gcc-arm-none-eabi-10.3-2021.10/bin/../lib/gcc/arm-none-eabi/10.3.1/thumb/v7-m/nofp\libgcc.a(_arm_addsubdf3.o)
                              d:/clion/tools/gcc-arm-none-eabi-10.3-2021.10-win32/gcc-arm-none-eabi-10.3-2021.10/bin/../lib/gcc/arm-none-eabi/10.3.1/../../../../arm-none-eabi/lib/thumb/v7-m/nofp\libg.a(lib_a-svfprintf.o) (__aeabi_dsub)
d:/clion/tools/gcc-arm-none-eabi-10.3-2021.10-win32/gcc-arm-none-eabi-10.3-2021.10/bin/../lib/gcc/arm-none-eabi/10.3.1/thumb/v7-m/nofp\libgcc.a(_arm_muldivdf3.o)
                              d:/clion/tools/gcc-arm-none-eabi-10.3-2021.10-win32/gcc-arm-none-eabi-10.3-2021.10/bin/../lib/gcc/arm-none-eabi/10.3.1/../../../../arm-none-eabi/lib/thumb/v7-m/nofp\libg.a(lib_a-dtoa.o) (__aeabi_ddiv)
d:/clion/tools/gcc-arm-none-eabi-10.3-2021.10-win32/gcc-arm-none-eabi-10.3-2021.10/bin/../lib/gcc/arm-none-eabi/10.3.1/thumb/v7-m/nofp\libgcc.a(_arm_cmpdf2.o)
                              d:/clion/tools/gcc-arm-none-eabi-10.3-2021.10-win32/gcc-arm-none-eabi-10.3-2021.10/bin/../lib/gcc/arm-none-eabi/10.3.1/../../../../arm-none-eabi/lib/thumb/v7-m/nofp\libg.a(lib_a-svfprintf.o) (__aeabi_dcmpeq)
d:/clion/tools/gcc-arm-none-eabi-10.3-2021.10-win32/gcc-arm-none-eabi-10.3-2021.10/bin/../lib/gcc/arm-none-eabi/10.3.1/thumb/v7-m/nofp\libgcc.a(_arm_unorddf2.o)
                              d:/clion/tools/gcc-arm-none-eabi-10.3-2021.10-win32/gcc-arm-none-eabi-10.3-2021.10/bin/../lib/gcc/arm-none-eabi/10.3.1/../../../../arm-none-eabi/lib/thumb/v7-m/nofp\libg.a(lib_a-svfprintf.o) (__aeabi_dcmpun)
d:/clion/tools/gcc-arm-none-eabi-10.3-2021.10-win32/gcc-arm-none-eabi-10.3-2021.10/bin/../lib/gcc/arm-none-eabi/10.3.1/thumb/v7-m/nofp\libgcc.a(_arm_fixdfsi.o)
                              d:/clion/tools/gcc-arm-none-eabi-10.3-2021.10-win32/gcc-arm-none-eabi-10.3-2021.10/bin/../lib/gcc/arm-none-eabi/10.3.1/../../../../arm-none-eabi/lib/thumb/v7-m/nofp\libg.a(lib_a-svfprintf.o) (__aeabi_d2iz)
d:/clion/tools/gcc-arm-none-eabi-10.3-2021.10-win32/gcc-arm-none-eabi-10.3-2021.10/bin/../lib/gcc/arm-none-eabi/10.3.1/thumb/v7-m/nofp\libgcc.a(_aeabi_uldivmod.o)
                              d:/clion/tools/gcc-arm-none-eabi-10.3-2021.10-win32/gcc-arm-none-eabi-10.3-2021.10/bin/../lib/gcc/arm-none-eabi/10.3.1/../../../../arm-none-eabi/lib/thumb/v7-m/nofp\libg.a(lib_a-svfprintf.o) (__aeabi_uldivmod)
d:/clion/tools/gcc-arm-none-eabi-10.3-2021.10-win32/gcc-arm-none-eabi-10.3-2021.10/bin/../lib/gcc/arm-none-eabi/10.3.1/thumb/v7-m/nofp\libgcc.a(_udivmoddi4.o)
                              d:/clion/tools/gcc-arm-none-eabi-10.3-2021.10-win32/gcc-arm-none-eabi-10.3-2021.10/bin/../lib/gcc/arm-none-eabi/10.3.1/thumb/v7-m/nofp\libgcc.a(_aeabi_uldivmod.o) (__udivmoddi4)
d:/clion/tools/gcc-arm-none-eabi-10.3-2021.10-win32/gcc-arm-none-eabi-10.3-2021.10/bin/../lib/gcc/arm-none-eabi/10.3.1/thumb/v7-m/nofp\libgcc.a(_dvmd_tls.o)
                              d:/clion/tools/gcc-arm-none-eabi-10.3-2021.10-win32/gcc-arm-none-eabi-10.3-2021.10/bin/../lib/gcc/arm-none-eabi/10.3.1/thumb/v7-m/nofp\libgcc.a(_aeabi_uldivmod.o) (__aeabi_ldiv0)

Discarded input sections

 .text          0x00000000        0x0 d:/clion/tools/gcc-arm-none-eabi-10.3-2021.10-win32/gcc-arm-none-eabi-10.3-2021.10/bin/../lib/gcc/arm-none-eabi/10.3.1/thumb/v7-m/nofp/crti.o
 .data          0x00000000        0x0 d:/clion/tools/gcc-arm-none-eabi-10.3-2021.10-win32/gcc-arm-none-eabi-10.3-2021.10/bin/../lib/gcc/arm-none-eabi/10.3.1/thumb/v7-m/nofp/crti.o
 .bss           0x00000000        0x0 d:/clion/tools/gcc-arm-none-eabi-10.3-2021.10-win32/gcc-arm-none-eabi-10.3-2021.10/bin/../lib/gcc/arm-none-eabi/10.3.1/thumb/v7-m/nofp/crti.o
 .data          0x00000000        0x4 d:/clion/tools/gcc-arm-none-eabi-10.3-2021.10-win32/gcc-arm-none-eabi-10.3-2021.10/bin/../lib/gcc/arm-none-eabi/10.3.1/thumb/v7-m/nofp/crtbegin.o
 .rodata        0x00000000       0x24 d:/clion/tools/gcc-arm-none-eabi-10.3-2021.10-win32/gcc-arm-none-eabi-10.3-2021.10/bin/../lib/gcc/arm-none-eabi/10.3.1/thumb/v7-m/nofp/crtbegin.o
 .text          0x00000000       0x7c d:/clion/tools/gcc-arm-none-eabi-10.3-2021.10-win32/gcc-arm-none-eabi-10.3-2021.10/bin/../lib/gcc/arm-none-eabi/10.3.1/../../../../arm-none-eabi/lib/thumb/v7-m/nofp/crt0.o
 .data          0x00000000        0x0 d:/clion/tools/gcc-arm-none-eabi-10.3-2021.10-win32/gcc-arm-none-eabi-10.3-2021.10/bin/../lib/gcc/arm-none-eabi/10.3.1/../../../../arm-none-eabi/lib/thumb/v7-m/nofp/crt0.o
 .bss           0x00000000        0x0 d:/clion/tools/gcc-arm-none-eabi-10.3-2021.10-win32/gcc-arm-none-eabi-10.3-2021.10/bin/../lib/gcc/arm-none-eabi/10.3.1/../../../../arm-none-eabi/lib/thumb/v7-m/nofp/crt0.o
 .ARM.extab     0x00000000        0x0 d:/clion/tools/gcc-arm-none-eabi-10.3-2021.10-win32/gcc-arm-none-eabi-10.3-2021.10/bin/../lib/gcc/arm-none-eabi/10.3.1/../../../../arm-none-eabi/lib/thumb/v7-m/nofp/crt0.o
 .ARM.exidx     0x00000000       0x10 d:/clion/tools/gcc-arm-none-eabi-10.3-2021.10-win32/gcc-arm-none-eabi-10.3-2021.10/bin/../lib/gcc/arm-none-eabi/10.3.1/../../../../arm-none-eabi/lib/thumb/v7-m/nofp/crt0.o
 .ARM.attributes
                0x00000000       0x1b d:/clion/tools/gcc-arm-none-eabi-10.3-2021.10-win32/gcc-arm-none-eabi-10.3-2021.10/bin/../lib/gcc/arm-none-eabi/10.3.1/../../../../arm-none-eabi/lib/thumb/v7-m/nofp/crt0.o
 .text          0x00000000        0x0 CMakeFiles/test.elf.dir/Drivers/STM32F1xx_HAL_Driver/Src/stm32f1xx_hal.c.obj
 .data          0x00000000        0x0 CMakeFiles/test.elf.dir/Drivers/STM32F1xx_HAL_Driver/Src/stm32f1xx_hal.c.obj
 .bss           0x00000000        0x0 CMakeFiles/test.elf.dir/Drivers/STM32F1xx_HAL_Driver/Src/stm32f1xx_hal.c.obj
 .text.HAL_MspInit
                0x00000000        0x2 CMakeFiles/test.elf.dir/Drivers/STM32F1xx_HAL_Driver/Src/stm32f1xx_hal.c.obj
 .text.HAL_MspDeInit
Memory Configuration

Name             Origin             Length             Attributes
RAM              0x20000000         0x00005000         xrw
FLASH            0x08000000         0x00010000         xr
*default*        0x00000000         0xffffffff

Linker script and memory map

LOAD d:/clion/tools/gcc-arm-none-eabi-10.3-2021.10-win32/gcc-arm-none-eabi-10.3-2021.10/bin/../lib/gcc/arm-none-eabi/10.3.1/thumb/v7-m/nofp/crti.o
LOAD d:/clion/tools/gcc-arm-none-eabi-10.3-2021.10-win32/gcc-arm-none-eabi-10.3-2021.10/bin/../lib/gcc/arm-none-eabi/10.3.1/thumb/v7-m/nofp/crtbegin.o
LOAD d:/clion/tools/gcc-arm-none-eabi-10.3-2021.10-win32/gcc-arm-none-eabi-10.3-2021.10/bin/../lib/gcc/arm-none-eabi/10.3.1/../../../../arm-none-eabi/lib/thumb/v7-m/nofp/crt0.o
LOAD CMakeFiles/test.elf.dir/Drivers/STM32F1xx_HAL_Driver/Src/stm32f1xx_hal.c.obj
LOAD CMakeFiles/test.elf.dir/Drivers/STM32F1xx_HAL_Driver/Src/stm32f1xx_hal_cortex.c.obj
LOAD CMakeFiles/test.elf.dir/Drivers/STM32F1xx_HAL_Driver/Src/stm32f1xx_hal_dma.c.obj
LOAD CMakeFiles/test.elf.dir/Drivers/STM32F1xx_HAL_Driver/Src/stm32f1xx_hal_exti.c.obj
LOAD CMakeFiles/test.elf.dir/Drivers/STM32F1xx_HAL_Driver/Src/stm32f1xx_hal_flash.c.obj
LOAD CMakeFiles/test.elf.dir/Drivers/STM32F1xx_HAL_Driver/Src/stm32f1xx_hal_flash_ex.c.obj
LOAD CMakeFiles/test.elf.dir/Drivers/STM32F1xx_HAL_Driver/Src/stm32f1xx_hal_gpio.c.obj
LOAD CMakeFiles/test.elf.dir/Drivers/STM32F1xx_HAL_Driver/Src/stm32f1xx_hal_gpio_ex.c.obj
LOAD CMakeFiles/test.elf.dir/Drivers/STM32F1xx_HAL_Driver/Src/stm32f1xx_hal_pwr.c.obj
LOAD CMakeFiles/test.elf.dir/Drivers/STM32F1xx_HAL_Driver/Src/stm32f1xx_hal_rcc.c.obj
LOAD CMakeFiles/test.elf.dir/Drivers/STM32F1xx_HAL_Driver/Src/stm32f1xx_hal_rcc_ex.c.obj
LOAD CMakeFiles/test.elf.dir/Drivers/STM32F1xx_HAL_Driver/Src/stm32f1xx_hal_tim.c.obj
LOAD CMakeFiles/test.elf.dir/Drivers/STM32F1xx_HAL_Driver/Src/stm32f1xx_hal_tim_ex.c.obj
LOAD CMakeFiles/test.elf.dir/Drivers/STM32F1xx_HAL_Driver/Src/stm32f1xx_hal_uart.c.obj
LOAD CMakeFiles/test.elf.dir/FreeRTOS_M3_gcc/portable/ARM_CM3/port.c.obj
LOAD CMakeFiles/test.elf.dir/FreeRTOS_M3_gcc/portable/MemMang/heap_4.c.obj
LOAD CMakeFiles/test.elf.dir/FreeRTOS_M3_gcc/src/croutine.c.obj
LOAD CMakeFiles/test.elf.dir/FreeRTOS_M3_gcc/src/event_groups.c.obj
LOAD CMakeFiles/test.elf.dir/FreeRTOS_M3_gcc/src/list.c.obj
LOAD CMakeFiles/test.elf.dir/FreeRTOS_M3_gcc/src/queue.c.obj
LOAD CMakeFiles/test.elf.dir/FreeRTOS_M3_gcc/src/stream_buffer.c.obj
LOAD CMakeFiles/test.elf.dir/FreeRTOS_M3_gcc/src/tasks.c.obj
LOAD CMakeFiles/test.elf.dir/FreeRTOS_M3_gcc/src/timers.c.obj
LOAD CMakeFiles/test.elf.dir/Src/gpio.c.obj
LOAD CMakeFiles/test.elf.dir/Src/main.c.obj
LOAD CMakeFiles/test.elf.dir/Src/stm32f1xx_hal_msp.c.obj
LOAD CMakeFiles/test.elf.dir/Src/stm32f1xx_it.c.obj
LOAD CMakeFiles/test.elf.dir/Src/syscalls.c.obj
LOAD CMakeFiles/test.elf.dir/Src/sysmem.c.obj
LOAD CMakeFiles/test.elf.dir/Src/system_stm32f1xx.c.obj
LOAD CMakeFiles/test.elf.dir/Src/usart.c.obj
LOAD CMakeFiles/test.elf.dir/Startup/startup_stm32f103c8tx.s.obj
START GROUP
LOAD d:/clion/tools/gcc-arm-none-eabi-10.3-2021.10-win32/gcc-arm-none-eabi-10.3-2021.10/bin/../lib/gcc/arm-none-eabi/10.3.1/thumb/v7-m/nofp\libgcc.a
LOAD d:/clion/tools/gcc-arm-none-eabi-10.3-2021.10-win32/gcc-arm-none-eabi-10.3-2021.10/bin/../lib/gcc/arm-none-eabi/10.3.1/../../../../arm-none-eabi/lib/thumb/v7-m/nofp\libg.a
LOAD d:/clion/tools/gcc-arm-none-eabi-10.3-2021.10-win32/gcc-arm-none-eabi-10.3-2021.10/bin/../lib/gcc/arm-none-eabi/10.3.1/../../../../arm-none-eabi/lib/thumb/v7-m/nofp\libc.a
END GROUP
LOAD d:/clion/tools/gcc-arm-none-eabi-10.3-2021.10-win32/gcc-arm-none-eabi-10.3-2021.10/bin/../lib/gcc/arm-none-eabi/10.3.1/thumb/v7-m/nofp/crtend.o
LOAD d:/clion/tools/gcc-arm-none-eabi-10.3-2021.10-win32/gcc-arm-none-eabi-10.3-2021.10/bin/../lib/gcc/arm-none-eabi/10.3.1/thumb/v7-m/nofp/crtn.o
                0x20005000                _estack = (ORIGIN (RAM) + LENGTH (RAM))
                0x00000200                _Min_Heap_Size = 0x200
                0x00000400                _Min_Stack_Size = 0x400

.isr_vector     0x08000000      0x10c
                0x08000000                . = ALIGN (0x4)
 *(.isr_vector)
 .isr_vector    0x08000000      0x10c CMakeFiles/test.elf.dir/Startup/startup_stm32f103c8tx.s.obj
                0x08000000                g_pfnVectors
                0x0800010c                . = ALIGN (0x4)

.text           0x08000110     0x4114
                0x08000110                . = ALIGN (0x4)
 *(.text)
 .text          0x08000110       0x40 d:/clion/tools/gcc-arm-none-eabi-10.3-2021.10-win32/gcc-arm-none-eabi-10.3-2021.10/bin/../lib/gcc/arm-none-eabi/10.3.1/thumb/v7-m/nofp/crtbegin.o
 .text          0x08000150       0xec d:/clion/tools/gcc-arm-none-eabi-10.3-2021.10-win32/gcc-arm-none-eabi-10.3-2021.10/bin/../lib/gcc/arm-none-eabi/10.3.1/../../../../arm-none-eabi/lib/thumb/v7-m/nofp\libg.a(lib_a-memcpy.o)
                0x08000150                memcpy
 *(.text*)
 .text.HAL_InitTick
                0x0800023c       0x4c CMakeFiles/test.elf.dir/Drivers/STM32F1xx_HAL_Driver/Src/stm32f1xx_hal.c.obj
                0x0800023c                HAL_InitTick
 .text.HAL_Init
                0x08000288       0x24 CMakeFiles/test.elf.dir/Drivers/STM32F1xx_HAL_Driver/Src/stm32f1xx_hal.c.obj
                0x08000288                HAL_Init
 .text.HAL_IncTick
                0x080002ac       0x18 CMakeFiles/test.elf.dir/Drivers/STM32F1xx_HAL_Driver/Src/stm32f1xx_hal.c.obj
                0x080002ac                HAL_IncTick
 .text.HAL_GetTick
                0x080002c4        0xc CMakeFiles/test.elf.dir/Drivers/STM32F1xx_HAL_Driver/Src/stm32f1xx_hal.c.obj
                0x080002c4                HAL_GetTick
 .text.HAL_NVIC_SetPriorityGrouping
                0x080002d0       0x24 CMakeFiles/test.elf.dir/Drivers/STM32F1xx_HAL_Driver/Src/stm32f1xx_hal_cortex.c.obj
                0x080002d0                HAL_NVIC_SetPriorityGrouping
 .text.HAL_NVIC_SetPriority
                0x080002f4       0x70 CMakeFiles/test.elf.dir/Drivers/STM32F1xx_HAL_Driver/Src/stm32f1xx_hal_cortex.c.obj
                0x080002f4                HAL_NVIC_SetPriority
 .text.HAL_SYSTICK_Config
                0x08000364       0x28 CMakeFiles/test.elf.dir/Drivers/STM32F1xx_HAL_Driver/Src/stm32f1xx_hal_cortex.c.obj
                0x08000364                HAL_SYSTICK_Config
 .text.HAL_GPIO_Init
                0x0800038c      0x224 CMakeFiles/test.elf.dir/Drivers/STM32F1xx_HAL_Driver/Src/stm32f1xx_hal_gpio.c.obj
                0x0800038c                HAL_GPIO_Init
 .text.HAL_GPIO_WritePin
                0x080005b0        0xc CMakeFiles/test.elf.dir/Drivers/STM32F1xx_HAL_Driver/Src/stm32f1xx_hal_gpio.c.obj
                0x080005b0                HAL_GPIO_WritePin
 .text.HAL_GPIO_TogglePin
                0x080005bc       0x12 CMakeFiles/test.elf.dir/Drivers/STM32F1xx_HAL_Driver/Src/stm32f1xx_hal_gpio.c.obj
                0x080005bc                HAL_GPIO_TogglePin
 *fill*         0x080005ce        0x2 
 .text.RCC_Delay
                0x080005d0       0x2c CMakeFiles/test.elf.dir/Drivers/STM32F1xx_HAL_Driver/Src/stm32f1xx_hal_rcc.c.obj
 .text.HAL_RCC_OscConfig
                0x080005fc      0x410 CMakeFiles/test.elf.dir/Drivers/STM32F1xx_HAL_Driver/Src/stm32f1xx_hal_rcc.c.obj
                0x080005fc                HAL_RCC_OscConfig
 .text.HAL_RCC_GetSysClockFreq
                0x08000a0c       0x54 CMakeFiles/test.elf.dir/Drivers/STM32F1xx_HAL_Driver/Src/stm32f1xx_hal_rcc.c.obj
                0x08000a0c                HAL_RCC_GetSysClockFreq
 .text.HAL_RCC_ClockConfig
                0x08000a60      0x16c CMakeFiles/test.elf.dir/Drivers/STM32F1xx_HAL_Driver/Src/stm32f1xx_hal_rcc.c.obj
                0x08000a60                HAL_RCC_ClockConfig
 .text.HAL_RCC_GetHCLKFreq
                0x08000bcc        0xc CMakeFiles/test.elf.dir/Drivers/STM32F1xx_HAL_Driver/Src/stm32f1xx_hal_rcc.c.obj
                0x08000bcc                HAL_RCC_GetHCLKFreq
 .text.HAL_RCC_GetPCLK1Freq
                0x08000bd8       0x20 CMakeFiles/test.elf.dir/Drivers/STM32F1xx_HAL_Driver/Src/stm32f1xx_hal_rcc.c.obj
                0x08000bd8                HAL_RCC_GetPCLK1Freq
 .text.HAL_RCC_GetPCLK2Freq
                0x08000bf8       0x20 CMakeFiles/test.elf.dir/Drivers/STM32F1xx_HAL_Driver/Src/stm32f1xx_hal_rcc.c.obj
                0x08000bf8                HAL_RCC_GetPCLK2Freq
 .text.UART_SetConfig
                0x08000c18       0x94 CMakeFiles/test.elf.dir/Drivers/STM32F1xx_HAL_Driver/Src/stm32f1xx_hal_uart.c.obj
 .text.UART_WaitOnFlagUntilTimeout
                0x08000cac       0x88 CMakeFiles/test.elf.dir/Drivers/STM32F1xx_HAL_Driver/Src/stm32f1xx_hal_uart.c.obj
 .text.HAL_UART_Init
                0x08000d34       0x60 CMakeFiles/test.elf.dir/Drivers/STM32F1xx_HAL_Driver/Src/stm32f1xx_hal_uart.c.obj
                0x08000d34                HAL_UART_Init
 .text.HAL_UART_Transmit
                0x08000d94       0xbe CMakeFiles/test.elf.dir/Drivers/STM32F1xx_HAL_Driver/Src/stm32f1xx_hal_uart.c.obj
                0x08000d94                HAL_UART_Transmit
 .text.prvTaskExitError
                0x08000e52       0x20 CMakeFiles/test.elf.dir/FreeRTOS_M3_gcc/portable/ARM_CM3/port.c.obj
 *fill*         0x08000e72        0x2 
 .text.prvPortStartFirstTask
                0x08000e74       0x20 CMakeFiles/test.elf.dir/FreeRTOS_M3_gcc/portable/ARM_CM3/port.c.obj
 .text.pxPortInitialiseStack
                0x08000e94       0x24 CMakeFiles/test.elf.dir/FreeRTOS_M3_gcc/portable/ARM_CM3/port.c.obj
                0x08000e94                pxPortInitialiseStack
 *fill*         0x08000eb8        0x8 
 .text.SVC_Handler
                0x08000ec0       0x24 CMakeFiles/test.elf.dir/FreeRTOS_M3_gcc/portable/ARM_CM3/port.c.obj
                0x08000ec0                SVC_Handler
 .text.vPortEnterCritical
                0x08000ee4       0x20 CMakeFiles/test.elf.dir/FreeRTOS_M3_gcc/portable/ARM_CM3/port.c.obj
                0x08000ee4                vPortEnterCritical
 .text.vPortExitCritical
                0x08000f04       0x14 CMakeFiles/test.elf.dir/FreeRTOS_M3_gcc/portable/ARM_CM3/port.c.obj
                0x08000f04                vPortExitCritical
 *fill*         0x08000f18        0x8 
 .text.PendSV_Handler
                0x08000f20       0x44 CMakeFiles/test.elf.dir/FreeRTOS_M3_gcc/portable/ARM_CM3/port.c.obj
                0x08000f20                PendSV_Handler
 .text.xPortSysTickHandler
                0x08000f64       0x2c CMakeFiles/test.elf.dir/FreeRTOS_M3_gcc/portable/ARM_CM3/port.c.obj
                0x08000f64                xPortSysTickHandler
 .text.vPortSetupTimerInterrupt
                0x08000f90       0x28 CMakeFiles/test.elf.dir/FreeRTOS_M3_gcc/portable/ARM_CM3/port.c.obj
                0x08000f90                vPortSetupTimerInterrupt
 .text.xPortStartScheduler
                0x08000fb8       0x3c CMakeFiles/test.elf.dir/FreeRTOS_M3_gcc/portable/ARM_CM3/port.c.obj
                0x08000fb8                xPortStartScheduler
 .text.prvHeapInit
                0x08000ff4       0x58 CMakeFiles/test.elf.dir/FreeRTOS_M3_gcc/portable/MemMang/heap_4.c.obj
 .text.prvInsertBlockIntoFreeList
                0x0800104c       0x60 CMakeFiles/test.elf.dir/FreeRTOS_M3_gcc/portable/MemMang/heap_4.c.obj
 .text.pvPortMalloc
                0x080010ac       0xc8 CMakeFiles/test.elf.dir/FreeRTOS_M3_gcc/portable/MemMang/heap_4.c.obj
                0x080010ac                pvPortMalloc
 .text.vPortFree
                0x08001174       0x50 CMakeFiles/test.elf.dir/FreeRTOS_M3_gcc/portable/MemMang/heap_4.c.obj
                0x08001174                vPortFree
 .text.vListInitialise
                0x080011c4       0x16 CMakeFiles/test.elf.dir/FreeRTOS_M3_gcc/src/list.c.obj
                0x080011c4                vListInitialise
 .text.vListInitialiseItem
                0x080011da        0x6 CMakeFiles/test.elf.dir/FreeRTOS_M3_gcc/src/list.c.obj
                0x080011da                vListInitialiseItem
 .text.vListInsert
                0x080011e0       0x32 CMakeFiles/test.elf.dir/FreeRTOS_M3_gcc/src/list.c.obj
                0x080011e0                vListInsert
 .text.uxListRemove
                0x08001212       0x26 CMakeFiles/test.elf.dir/FreeRTOS_M3_gcc/src/list.c.obj
                0x08001212                uxListRemove
 .text.prvIsQueueEmpty
                0x08001238       0x1a CMakeFiles/test.elf.dir/FreeRTOS_M3_gcc/src/queue.c.obj
 .text.prvCopyDataToQueue
                0x08001252       0x76 CMakeFiles/test.elf.dir/FreeRTOS_M3_gcc/src/queue.c.obj
 .text.prvCopyDataFromQueue
                0x080012c8       0x24 CMakeFiles/test.elf.dir/FreeRTOS_M3_gcc/src/queue.c.obj
 .text.prvNotifyQueueSetContainer
                0x080012ec       0x58 CMakeFiles/test.elf.dir/FreeRTOS_M3_gcc/src/queue.c.obj
 .text.prvUnlockQueue
                0x08001344       0x82 CMakeFiles/test.elf.dir/FreeRTOS_M3_gcc/src/queue.c.obj
 .text.xQueueGenericReset
                0x080013c6       0x96 CMakeFiles/test.elf.dir/FreeRTOS_M3_gcc/src/queue.c.obj
                0x080013c6                xQueueGenericReset
 .text.prvInitialiseNewQueue
                0x0800145c       0x26 CMakeFiles/test.elf.dir/FreeRTOS_M3_gcc/src/queue.c.obj
 .text.xQueueGenericCreate
                0x08001482       0x50 CMakeFiles/test.elf.dir/FreeRTOS_M3_gcc/src/queue.c.obj
                0x08001482                xQueueGenericCreate
 .text.xQueueReceive
                0x080014d2      0x110 CMakeFiles/test.elf.dir/FreeRTOS_M3_gcc/src/queue.c.obj
                0x080014d2                xQueueReceive
 *fill*         0x080015e2        0x2 
 .text.vQueueAddToRegistry
                0x080015e4       0x4c CMakeFiles/test.elf.dir/FreeRTOS_M3_gcc/src/queue.c.obj
                0x080015e4                vQueueAddToRegistry
 .text.vQueueWaitForMessageRestricted
                0x08001630       0x52 CMakeFiles/test.elf.dir/FreeRTOS_M3_gcc/src/queue.c.obj
                0x08001630                vQueueWaitForMessageRestricted
 *fill*         0x08001682        0x2 
 .text.prvResetNextTaskUnblockTime
                0x08001684       0x28 CMakeFiles/test.elf.dir/FreeRTOS_M3_gcc/src/tasks.c.obj
 .text.prvDeleteTCB
                0x080016ac       0x12 CMakeFiles/test.elf.dir/FreeRTOS_M3_gcc/src/tasks.c.obj
 .text.prvInitialiseNewTask
                0x080016be       0x94 CMakeFiles/test.elf.dir/FreeRTOS_M3_gcc/src/tasks.c.obj
 *fill*         0x08001752        0x2 
 .text.prvInitialiseTaskLists
                0x08001754       0x68 CMakeFiles/test.elf.dir/FreeRTOS_M3_gcc/src/tasks.c.obj
 .text.prvAddNewTaskToReadyList
                0x080017bc       0xc8 CMakeFiles/test.elf.dir/FreeRTOS_M3_gcc/src/tasks.c.obj
 .text.prvCheckTasksWaitingTermination
                0x08001884       0x4c CMakeFiles/test.elf.dir/FreeRTOS_M3_gcc/src/tasks.c.obj
 .text.prvIdleTask
                0x080018d0       0x28 CMakeFiles/test.elf.dir/FreeRTOS_M3_gcc/src/tasks.c.obj
 .text.prvAddCurrentTaskToDelayedList
                0x080018f8       0xa0 CMakeFiles/test.elf.dir/FreeRTOS_M3_gcc/src/tasks.c.obj
 .text.xTaskCreate
                0x08001998       0x6c CMakeFiles/test.elf.dir/FreeRTOS_M3_gcc/src/tasks.c.obj
                0x08001998                xTaskCreate
 .text.vTaskStartScheduler
                0x08001a04       0x74 CMakeFiles/test.elf.dir/FreeRTOS_M3_gcc/src/tasks.c.obj
                0x08001a04                vTaskStartScheduler
 .text.vTaskSuspendAll
                0x08001a78       0x10 CMakeFiles/test.elf.dir/FreeRTOS_M3_gcc/src/tasks.c.obj
                0x08001a78                vTaskSuspendAll
 .text.xTaskGetTickCount
                0x08001a88        0xc CMakeFiles/test.elf.dir/FreeRTOS_M3_gcc/src/tasks.c.obj
                0x08001a88                xTaskGetTickCount
 .text.uxTaskGetNumberOfTasks
                0x08001a94        0xc CMakeFiles/test.elf.dir/FreeRTOS_M3_gcc/src/tasks.c.obj
                0x08001a94                uxTaskGetNumberOfTasks
 .text.xTaskIncrementTick
                0x08001aa0      0x160 CMakeFiles/test.elf.dir/FreeRTOS_M3_gcc/src/tasks.c.obj
                0x08001aa0                xTaskIncrementTick
 .text.xTaskResumeAll
                0x08001c00      0x134 CMakeFiles/test.elf.dir/FreeRTOS_M3_gcc/src/tasks.c.obj
                0x08001c00                xTaskResumeAll
 .text.vTaskDelay
                0x08001d34       0x32 CMakeFiles/test.elf.dir/FreeRTOS_M3_gcc/src/tasks.c.obj
                0x08001d34                vTaskDelay
 *fill*         0x08001d66        0x2 
 .text.vTaskSwitchContext
                0x08001d68       0x84 CMakeFiles/test.elf.dir/FreeRTOS_M3_gcc/src/tasks.c.obj
                0x08001d68                vTaskSwitchContext
 .text.vTaskPlaceOnEventList
                0x08001dec       0x1c CMakeFiles/test.elf.dir/FreeRTOS_M3_gcc/src/tasks.c.obj
                0x08001dec                vTaskPlaceOnEventList
 .text.vTaskPlaceOnEventListRestricted
                0x08001e08       0x3c CMakeFiles/test.elf.dir/FreeRTOS_M3_gcc/src/tasks.c.obj
                0x08001e08                vTaskPlaceOnEventListRestricted
 .text.xTaskRemoveFromEventList
                0x08001e44       0xdc CMakeFiles/test.elf.dir/FreeRTOS_M3_gcc/src/tasks.c.obj
                0x08001e44                xTaskRemoveFromEventList
 .text.vTaskInternalSetTimeOutState
                0x08001f20       0x18 CMakeFiles/test.elf.dir/FreeRTOS_M3_gcc/src/tasks.c.obj
                0x08001f20                vTaskInternalSetTimeOutState
 .text.xTaskCheckForTimeOut
                0x08001f38       0x7c CMakeFiles/test.elf.dir/FreeRTOS_M3_gcc/src/tasks.c.obj
                0x08001f38                xTaskCheckForTimeOut
 .text.vTaskMissedYield
                0x08001fb4        0xc CMakeFiles/test.elf.dir/FreeRTOS_M3_gcc/src/tasks.c.obj
                0x08001fb4                vTaskMissedYield
 .text.xTaskGetSchedulerState
                0x08001fc0       0x20 CMakeFiles/test.elf.dir/FreeRTOS_M3_gcc/src/tasks.c.obj
                0x08001fc0                xTaskGetSchedulerState
 .text.xTaskPriorityDisinherit
                0x08001fe0       0x78 CMakeFiles/test.elf.dir/FreeRTOS_M3_gcc/src/tasks.c.obj
                0x08001fe0                xTaskPriorityDisinherit
 .text.prvGetNextExpireTime
                0x08002058       0x20 CMakeFiles/test.elf.dir/FreeRTOS_M3_gcc/src/timers.c.obj
 .text.prvInsertTimerInActiveList
                0x08002078       0x48 CMakeFiles/test.elf.dir/FreeRTOS_M3_gcc/src/timers.c.obj
 .text.prvReloadTimer
                0x080020c0       0x28 CMakeFiles/test.elf.dir/FreeRTOS_M3_gcc/src/timers.c.obj
 .text.prvProcessExpiredTimer
                0x080020e8       0x40 CMakeFiles/test.elf.dir/FreeRTOS_M3_gcc/src/timers.c.obj
 .text.prvSwitchTimerLists
                0x08002128       0x30 CMakeFiles/test.elf.dir/FreeRTOS_M3_gcc/src/timers.c.obj
 .text.prvSampleTimeNow
                0x08002158       0x2c CMakeFiles/test.elf.dir/FreeRTOS_M3_gcc/src/timers.c.obj
 .text.prvProcessTimerOrBlockTask
                0x08002184       0x74 CMakeFiles/test.elf.dir/FreeRTOS_M3_gcc/src/timers.c.obj
 .text.prvProcessReceivedCommands
                0x080021f8       0xf0 CMakeFiles/test.elf.dir/FreeRTOS_M3_gcc/src/timers.c.obj
 .text.prvTimerTask
                0x080022e8       0x16 CMakeFiles/test.elf.dir/FreeRTOS_M3_gcc/src/timers.c.obj
 *fill*         0x080022fe        0x2 
 .text.prvCheckForValidListAndQueue
                0x08002300       0x5c CMakeFiles/test.elf.dir/FreeRTOS_M3_gcc/src/timers.c.obj
 .text.xTimerCreateTimerTask
                0x0800235c       0x40 CMakeFiles/test.elf.dir/FreeRTOS_M3_gcc/src/timers.c.obj
                0x0800235c                xTimerCreateTimerTask
 .text.MX_GPIO_Init
                0x0800239c       0xa0 CMakeFiles/test.elf.dir/Src/gpio.c.obj
                0x0800239c                MX_GPIO_Init
 .text.vTask1   0x0800243c       0x18 CMakeFiles/test.elf.dir/Src/main.c.obj
                0x0800243c                vTask1
 .text.vTask2   0x08002454       0x18 CMakeFiles/test.elf.dir/Src/main.c.obj
                0x08002454                vTask2
 .text.vTask3   0x0800246c       0x18 CMakeFiles/test.elf.dir/Src/main.c.obj
                0x0800246c                vTask3
 .text.vTask4   0x08002484       0x18 CMakeFiles/test.elf.dir/Src/main.c.obj
                0x08002484                vTask4
 .text.__io_putchar
                0x0800249c       0x20 CMakeFiles/test.elf.dir/Src/main.c.obj
                0x0800249c                __io_putchar
 .text.Error_Handler
                0x080024bc        0x4 CMakeFiles/test.elf.dir/Src/main.c.obj
                0x080024bc                Error_Handler
 .text.SystemClock_Config
                0x080024c0       0x64 CMakeFiles/test.elf.dir/Src/main.c.obj
                0x080024c0                SystemClock_Config
 .text.main     0x08002524       0x80 CMakeFiles/test.elf.dir/Src/main.c.obj
                0x08002524                main
 .text.HAL_MspInit
                0x080025a4       0x44 CMakeFiles/test.elf.dir/Src/stm32f1xx_hal_msp.c.obj
                0x080025a4                HAL_MspInit
 .text.NMI_Handler
                0x080025e8        0x2 CMakeFiles/test.elf.dir/Src/stm32f1xx_it.c.obj
                0x080025e8                NMI_Handler
 .text.HardFault_Handler
                0x080025ea        0x2 CMakeFiles/test.elf.dir/Src/stm32f1xx_it.c.obj
                0x080025ea                HardFault_Handler
 .text.MemManage_Handler
                0x080025ec        0x2 CMakeFiles/test.elf.dir/Src/stm32f1xx_it.c.obj
                0x080025ec                MemManage_Handler
 .text.BusFault_Handler
                0x080025ee        0x2 CMakeFiles/test.elf.dir/Src/stm32f1xx_it.c.obj
                0x080025ee                BusFault_Handler
 .text.UsageFault_Handler
                0x080025f0        0x2 CMakeFiles/test.elf.dir/Src/stm32f1xx_it.c.obj
                0x080025f0                UsageFault_Handler
 .text.DebugMon_Handler
                0x080025f2        0x2 CMakeFiles/test.elf.dir/Src/stm32f1xx_it.c.obj
                0x080025f2                DebugMon_Handler
 .text.SysTick_Handler
                0x080025f4       0x16 CMakeFiles/test.elf.dir/Src/stm32f1xx_it.c.obj
                0x080025f4                SysTick_Handler
 .text._read    0x0800260a       0x20 CMakeFiles/test.elf.dir/Src/syscalls.c.obj
                0x0800260a                _read
 .text._write   0x0800262a       0x1c CMakeFiles/test.elf.dir/Src/syscalls.c.obj
                0x0800262a                _write
 .text._close   0x08002646        0x6 CMakeFiles/test.elf.dir/Src/syscalls.c.obj
                0x08002646                _close
 .text._fstat   0x0800264c        0xa CMakeFiles/test.elf.dir/Src/syscalls.c.obj
                0x0800264c                _fstat
 .text._isatty  0x08002656        0x4 CMakeFiles/test.elf.dir/Src/syscalls.c.obj
                0x08002656                _isatty
 .text._lseek   0x0800265a        0x4 CMakeFiles/test.elf.dir/Src/syscalls.c.obj
                0x0800265a                _lseek
 *fill*         0x0800265e        0x2 
 .text._sbrk    0x08002660       0x48 CMakeFiles/test.elf.dir/Src/sysmem.c.obj
                0x08002660                _sbrk
 .text.SystemInit
                0x080026a8        0x2 CMakeFiles/test.elf.dir/Src/system_stm32f1xx.c.obj
                0x080026a8                SystemInit
 *fill*         0x080026aa        0x2 
 .text.MX_USART1_UART_Init
                0x080026ac       0x34 CMakeFiles/test.elf.dir/Src/usart.c.obj
                0x080026ac                MX_USART1_UART_Init
 .text.HAL_UART_MspInit
                0x080026e0       0x78 CMakeFiles/test.elf.dir/Src/usart.c.obj
                0x080026e0                HAL_UART_MspInit
 .text.Reset_Handler
                0x08002758       0x48 CMakeFiles/test.elf.dir/Startup/startup_stm32f103c8tx.s.obj
                0x08002758                Reset_Handler
 .text.Default_Handler
                0x080027a0        0x2 CMakeFiles/test.elf.dir/Startup/startup_stm32f103c8tx.s.obj
                0x080027a0                RTC_Alarm_IRQHandler
                0x080027a0                EXTI2_IRQHandler
                0x080027a0                TIM1_CC_IRQHandler
                0x080027a0                PVD_IRQHandler
                0x080027a0                EXTI3_IRQHandler
                0x080027a0                EXTI0_IRQHandler
                0x080027a0                I2C2_EV_IRQHandler
                0x080027a0                ADC1_2_IRQHandler
                0x080027a0                SPI1_IRQHandler
                0x080027a0                TAMPER_IRQHandler
                0x080027a0                DMA1_Channel4_IRQHandler
                0x080027a0                USART3_IRQHandler
                0x080027a0                RTC_IRQHandler
                0x080027a0                DMA1_Channel7_IRQHandler
                0x080027a0                CAN1_RX1_IRQHandler
                0x080027a0                TIM4_IRQHandler
                0x080027a0                I2C1_EV_IRQHandler
                0x080027a0                DMA1_Channel6_IRQHandler
                0x080027a0                TIM3_IRQHandler
                0x080027a0                RCC_IRQHandler
                0x080027a0                TIM1_TRG_COM_IRQHandler
                0x080027a0                DMA1_Channel1_IRQHandler
                0x080027a0                Default_Handler
                0x080027a0                EXTI15_10_IRQHandler
                0x080027a0                EXTI9_5_IRQHandler
                0x080027a0                SPI2_IRQHandler
                0x080027a0                DMA1_Channel5_IRQHandler
                0x080027a0                EXTI4_IRQHandler
                0x080027a0                USB_LP_CAN1_RX0_IRQHandler
                0x080027a0                USB_HP_CAN1_TX_IRQHandler
                0x080027a0                DMA1_Channel3_IRQHandler
                0x080027a0                TIM1_UP_IRQHandler
                0x080027a0                WWDG_IRQHandler
                0x080027a0                TIM2_IRQHandler
                0x080027a0                TIM1_BRK_IRQHandler
                0x080027a0                EXTI1_IRQHandler
                0x080027a0                USART2_IRQHandler
                0x080027a0                I2C2_ER_IRQHandler
                0x080027a0                DMA1_Channel2_IRQHandler
                0x080027a0                CAN1_SCE_IRQHandler
                0x080027a0                FLASH_IRQHandler
                0x080027a0                USART1_IRQHandler
                0x080027a0                I2C1_ER_IRQHandler
                0x080027a0                USBWakeUp_IRQHandler
 *fill*         0x080027a2        0x2 
 .text.__errno  0x080027a4        0xc d:/clion/tools/gcc-arm-none-eabi-10.3-2021.10-win32/gcc-arm-none-eabi-10.3-2021.10/bin/../lib/gcc/arm-none-eabi/10.3.1/../../../../arm-none-eabi/lib/thumb/v7-m/nofp\libg.a(lib_a-errno.o)
                0x080027a4                __errno
 .text.__libc_init_array
                0x080027b0       0x48 d:/clion/tools/gcc-arm-none-eabi-10.3-2021.10-win32/gcc-arm-none-eabi-10.3-2021.10/bin/../lib/gcc/arm-none-eabi/10.3.1/../../../../arm-none-eabi/lib/thumb/v7-m/nofp\libg.a(lib_a-init.o)
                0x080027b0                __libc_init_array
 .text.memset   0x080027f8       0xa4 d:/clion/tools/gcc-arm-none-eabi-10.3-2021.10-win32/gcc-arm-none-eabi-10.3-2021.10/bin/../lib/gcc/arm-none-eabi/10.3.1/../../../../arm-none-eabi/lib/thumb/v7-m/nofp\libg.a(lib_a-memset.o)
                0x080027f8                memset
 .text._puts_r  0x0800289c       0x9c d:/clion/tools/gcc-arm-none-eabi-10.3-2021.10-win32/gcc-arm-none-eabi-10.3-2021.10/bin/../lib/gcc/arm-none-eabi/10.3.1/../../../../arm-none-eabi/lib/thumb/v7-m/nofp\libg.a(lib_a-puts.o)
                0x0800289c                _puts_r
 .text.puts     0x08002938       0x10 d:/clion/tools/gcc-arm-none-eabi-10.3-2021.10-win32/gcc-arm-none-eabi-10.3-2021.10/bin/../lib/gcc/arm-none-eabi/10.3.1/../../../../arm-none-eabi/lib/thumb/v7-m/nofp\libg.a(lib_a-puts.o)
                0x08002938                puts
 .text.strlen   0x08002948       0x5c d:/clion/tools/gcc-arm-none-eabi-10.3-2021.10-win32/gcc-arm-none-eabi-10.3-2021.10/bin/../lib/gcc/arm-none-eabi/10.3.1/../../../../arm-none-eabi/lib/thumb/v7-m/nofp\libg.a(lib_a-strlen-stub.o)
                0x08002948                strlen
 .text.startup.register_fini
                0x080029a4       0x14 d:/clion/tools/gcc-arm-none-eabi-10.3-2021.10-win32/gcc-arm-none-eabi-10.3-2021.10/bin/../lib/gcc/arm-none-eabi/10.3.1/../../../../arm-none-eabi/lib/thumb/v7-m/nofp\libg.a(lib_a-__call_atexit.o)
 .text.atexit   0x080029b8        0xc d:/clion/tools/gcc-arm-none-eabi-10.3-2021.10-win32/gcc-arm-none-eabi-10.3-2021.10/bin/../lib/gcc/arm-none-eabi/10.3.1/../../../../arm-none-eabi/lib/thumb/v7-m/nofp\libg.a(lib_a-atexit.o)
                0x080029b8                atexit
 .text._cleanup_r
                0x080029c4        0xc d:/clion/tools/gcc-arm-none-eabi-10.3-2021.10-win32/gcc-arm-none-eabi-10.3-2021.10/bin/../lib/gcc/arm-none-eabi/10.3.1/../../../../arm-none-eabi/lib/thumb/v7-m/nofp\libg.a(lib_a-findfp.o)
                0x080029c4                _cleanup_r
 .text.__sinit  0x080029d0      0x10c d:/clion/tools/gcc-arm-none-eabi-10.3-2021.10-win32/gcc-arm-none-eabi-10.3-2021.10/bin/../lib/gcc/arm-none-eabi/10.3.1/../../../../arm-none-eabi/lib/thumb/v7-m/nofp\libg.a(lib_a-findfp.o)
                0x080029d0                __sinit
 .text.__sfp_lock_acquire
                0x08002adc        0xc d:/clion/tools/gcc-arm-none-eabi-10.3-2021.10-win32/gcc-arm-none-eabi-10.3-2021.10/bin/../lib/gcc/arm-none-eabi/10.3.1/../../../../arm-none-eabi/lib/thumb/v7-m/nofp\libg.a(lib_a-findfp.o)
                0x08002adc                __sfp_lock_acquire
 .text.__sfp_lock_release
                0x08002ae8        0xc d:/clion/tools/gcc-arm-none-eabi-10.3-2021.10-win32/gcc-arm-none-eabi-10.3-2021.10/bin/../lib/gcc/arm-none-eabi/10.3.1/../../../../arm-none-eabi/lib/thumb/v7-m/nofp\libg.a(lib_a-findfp.o)
                0x08002ae8                __sfp_lock_release
 .text.__libc_fini_array
                0x08002af4       0x2c d:/clion/tools/gcc-arm-none-eabi-10.3-2021.10-win32/gcc-arm-none-eabi-10.3-2021.10/bin/../lib/gcc/arm-none-eabi/10.3.1/../../../../arm-none-eabi/lib/thumb/v7-m/nofp\libg.a(lib_a-fini.o)
                0x08002af4                __libc_fini_array
 .text._malloc_trim_r
                0x08002b20       0xa0 d:/clion/tools/gcc-arm-none-eabi-10.3-2021.10-win32/gcc-arm-none-eabi-10.3-2021.10/bin/../lib/gcc/arm-none-eabi/10.3.1/../../../../arm-none-eabi/lib/thumb/v7-m/nofp\libg.a(lib_a-freer.o)
                0x08002b20                _malloc_trim_r
 .text._free_r  0x08002bc0      0x200 d:/clion/tools/gcc-arm-none-eabi-10.3-2021.10-win32/gcc-arm-none-eabi-10.3-2021.10/bin/../lib/gcc/arm-none-eabi/10.3.1/../../../../arm-none-eabi/lib/thumb/v7-m/nofp\libg.a(lib_a-freer.o)
                0x08002bc0                _free_r
 .text.__sfvwrite_r
                0x08002dc0      0x2f0 d:/clion/tools/gcc-arm-none-eabi-10.3-2021.10-win32/gcc-arm-none-eabi-10.3-2021.10/bin/../lib/gcc/arm-none-eabi/10.3.1/../../../../arm-none-eabi/lib/thumb/v7-m/nofp\libg.a(lib_a-fvwrite.o)
                0x08002dc0                __sfvwrite_r
 .text._fwalk_reent
                0x080030b0       0x48 d:/clion/tools/gcc-arm-none-eabi-10.3-2021.10-win32/gcc-arm-none-eabi-10.3-2021.10/bin/../lib/gcc/arm-none-eabi/10.3.1/../../../../arm-none-eabi/lib/thumb/v7-m/nofp\libg.a(lib_a-fwalk.o)
                0x080030b0                _fwalk_reent
 .text.__retarget_lock_init_recursive
                0x080030f8        0x4 d:/clion/tools/gcc-arm-none-eabi-10.3-2021.10-win32/gcc-arm-none-eabi-10.3-2021.10/bin/../lib/gcc/arm-none-eabi/10.3.1/../../../../arm-none-eabi/lib/thumb/v7-m/nofp\libg.a(lib_a-lock.o)
                0x080030f8                __retarget_lock_init_recursive
 .text.__retarget_lock_close_recursive
                0x080030fc        0x4 d:/clion/tools/gcc-arm-none-eabi-10.3-2021.10-win32/gcc-arm-none-eabi-10.3-2021.10/bin/../lib/gcc/arm-none-eabi/10.3.1/../../../../arm-none-eabi/lib/thumb/v7-m/nofp\libg.a(lib_a-lock.o)
                0x080030fc                __retarget_lock_close_recursive
 .text.__retarget_lock_acquire_recursive
                0x08003100        0x4 d:/clion/tools/gcc-arm-none-eabi-10.3-2021.10-win32/gcc-arm-none-eabi-10.3-2021.10/bin/../lib/gcc/arm-none-eabi/10.3.1/../../../../arm-none-eabi/lib/thumb/v7-m/nofp\libg.a(lib_a-lock.o)
                0x08003100                __retarget_lock_acquire_recursive
 .text.__retarget_lock_release_recursive
                0x08003104        0x4 d:/clion/tools/gcc-arm-none-eabi-10.3-2021.10-win32/gcc-arm-none-eabi-10.3-2021.10/bin/../lib/gcc/arm-none-eabi/10.3.1/../../../../arm-none-eabi/lib/thumb/v7-m/nofp\libg.a(lib_a-lock.o)
                0x08003104                __retarget_lock_release_recursive
 .text._malloc_r
                0x08003108      0x558 d:/clion/tools/gcc-arm-none-eabi-10.3-2021.10-win32/gcc-arm-none-eabi-10.3-2021.10/bin/../lib/gcc/arm-none-eabi/10.3.1/../../../../arm-none-eabi/lib/thumb/v7-m/nofp\libg.a(lib_a-mallocr.o)
                0x08003108                _malloc_r
 .text.memchr   0x08003660       0x90 d:/clion/tools/gcc-arm-none-eabi-10.3-2021.10-win32/gcc-arm-none-eabi-10.3-2021.10/bin/../lib/gcc/arm-none-eabi/10.3.1/../../../../arm-none-eabi/lib/thumb/v7-m/nofp\libg.a(lib_a-memchr-stub.o)
                0x08003660                memchr
 .text.memmove  0x080036f0       0xf8 d:/clion/tools/gcc-arm-none-eabi-10.3-2021.10-win32/gcc-arm-none-eabi-10.3-2021.10/bin/../lib/gcc/arm-none-eabi/10.3.1/../../../../arm-none-eabi/lib/thumb/v7-m/nofp\libg.a(lib_a-memmove.o)
                0x080036f0                memmove
 .text.__malloc_lock
                0x080037e8        0xc d:/clion/tools/gcc-arm-none-eabi-10.3-2021.10-win32/gcc-arm-none-eabi-10.3-2021.10/bin/../lib/gcc/arm-none-eabi/10.3.1/../../../../arm-none-eabi/lib/thumb/v7-m/nofp\libg.a(lib_a-mlock.o)
                0x080037e8                __malloc_lock
 .text.__malloc_unlock
                0x080037f4        0xc d:/clion/tools/gcc-arm-none-eabi-10.3-2021.10-win32/gcc-arm-none-eabi-10.3-2021.10/bin/../lib/gcc/arm-none-eabi/10.3.1/../../../../arm-none-eabi/lib/thumb/v7-m/nofp\libg.a(lib_a-mlock.o)
                0x080037f4                __malloc_unlock
 .text._realloc_r
                0x08003800      0x3dc d:/clion/tools/gcc-arm-none-eabi-10.3-2021.10-win32/gcc-arm-none-eabi-10.3-2021.10/bin/../lib/gcc/arm-none-eabi/10.3.1/../../../../arm-none-eabi/lib/thumb/v7-m/nofp\libg.a(lib_a-reallocr.o)
                0x08003800                _realloc_r
 .text._sbrk_r  0x08003bdc       0x24 d:/clion/tools/gcc-arm-none-eabi-10.3-2021.10-win32/gcc-arm-none-eabi-10.3-2021.10/bin/../lib/gcc/arm-none-eabi/10.3.1/../../../../arm-none-eabi/lib/thumb/v7-m/nofp\libg.a(lib_a-sbrkr.o)
                0x08003bdc                _sbrk_r
 .text.__sread  0x08003c00       0x24 d:/clion/tools/gcc-arm-none-eabi-10.3-2021.10-win32/gcc-arm-none-eabi-10.3-2021.10/bin/../lib/gcc/arm-none-eabi/10.3.1/../../../../arm-none-eabi/lib/thumb/v7-m/nofp\libg.a(lib_a-stdio.o)
                0x08003c00                __sread
 .text.__swrite
                0x08003c24       0x40 d:/clion/tools/gcc-arm-none-eabi-10.3-2021.10-win32/gcc-arm-none-eabi-10.3-2021.10/bin/../lib/gcc/arm-none-eabi/10.3.1/../../../../arm-none-eabi/lib/thumb/v7-m/nofp\libg.a(lib_a-stdio.o)
                0x08003c24                __swrite
 .text.__sseek  0x08003c64       0x20 d:/clion/tools/gcc-arm-none-eabi-10.3-2021.10-win32/gcc-arm-none-eabi-10.3-2021.10/bin/../lib/gcc/arm-none-eabi/10.3.1/../../../../arm-none-eabi/lib/thumb/v7-m/nofp\libg.a(lib_a-stdio.o)
                0x08003c64                __sseek
 .text.__sclose
                0x08003c84        0x8 d:/clion/tools/gcc-arm-none-eabi-10.3-2021.10-win32/gcc-arm-none-eabi-10.3-2021.10/bin/../lib/gcc/arm-none-eabi/10.3.1/../../../../arm-none-eabi/lib/thumb/v7-m/nofp\libg.a(lib_a-stdio.o)
                0x08003c84                __sclose
 .text._write_r
                0x08003c8c       0x2c d:/clion/tools/gcc-arm-none-eabi-10.3-2021.10-win32/gcc-arm-none-eabi-10.3-2021.10/bin/../lib/gcc/arm-none-eabi/10.3.1/../../../../arm-none-eabi/lib/thumb/v7-m/nofp\libg.a(lib_a-writer.o)
                0x08003c8c                _write_r
 .text.__swsetup_r
                0x08003cb8       0xd4 d:/clion/tools/gcc-arm-none-eabi-10.3-2021.10-win32/gcc-arm-none-eabi-10.3-2021.10/bin/../lib/gcc/arm-none-eabi/10.3.1/../../../../arm-none-eabi/lib/thumb/v7-m/nofp\libg.a(lib_a-wsetup.o)
                0x08003cb8                __swsetup_r
 .text.__register_exitproc
                0x08003d8c       0x8c d:/clion/tools/gcc-arm-none-eabi-10.3-2021.10-win32/gcc-arm-none-eabi-10.3-2021.10/bin/../lib/gcc/arm-none-eabi/10.3.1/../../../../arm-none-eabi/lib/thumb/v7-m/nofp\libg.a(lib_a-__atexit.o)
                0x08003d8c                __register_exitproc
 .text._close_r
                0x08003e18       0x24 d:/clion/tools/gcc-arm-none-eabi-10.3-2021.10-win32/gcc-arm-none-eabi-10.3-2021.10/bin/../lib/gcc/arm-none-eabi/10.3.1/../../../../arm-none-eabi/lib/thumb/v7-m/nofp\libg.a(lib_a-closer.o)
                0x08003e18                _close_r
 .text._fclose_r
                0x08003e3c       0xcc d:/clion/tools/gcc-arm-none-eabi-10.3-2021.10-win32/gcc-arm-none-eabi-10.3-2021.10/bin/../lib/gcc/arm-none-eabi/10.3.1/../../../../arm-none-eabi/lib/thumb/v7-m/nofp\libg.a(lib_a-fclose.o)
                0x08003e3c                _fclose_r
 .text.__sflush_r
                0x08003f08      0x124 d:/clion/tools/gcc-arm-none-eabi-10.3-2021.10-win32/gcc-arm-none-eabi-10.3-2021.10/bin/../lib/gcc/arm-none-eabi/10.3.1/../../../../arm-none-eabi/lib/thumb/v7-m/nofp\libg.a(lib_a-fflush.o)
                0x08003f08                __sflush_r
 .text._fflush_r
                0x0800402c       0x5c d:/clion/tools/gcc-arm-none-eabi-10.3-2021.10-win32/gcc-arm-none-eabi-10.3-2021.10/bin/../lib/gcc/arm-none-eabi/10.3.1/../../../../arm-none-eabi/lib/thumb/v7-m/nofp\libg.a(lib_a-fflush.o)
                0x0800402c                _fflush_r
 .text._lseek_r
                0x08004088       0x2c d:/clion/tools/gcc-arm-none-eabi-10.3-2021.10-win32/gcc-arm-none-eabi-10.3-2021.10/bin/../lib/gcc/arm-none-eabi/10.3.1/../../../../arm-none-eabi/lib/thumb/v7-m/nofp\libg.a(lib_a-lseekr.o)
                0x08004088                _lseek_r
 .text.__smakebuf_r
                0x080040b4       0xe0 d:/clion/tools/gcc-arm-none-eabi-10.3-2021.10-win32/gcc-arm-none-eabi-10.3-2021.10/bin/../lib/gcc/arm-none-eabi/10.3.1/../../../../arm-none-eabi/lib/thumb/v7-m/nofp\libg.a(lib_a-makebuf.o)
                0x080040b4                __smakebuf_r
 .text._read_r  0x08004194       0x2c d:/clion/tools/gcc-arm-none-eabi-10.3-2021.10-win32/gcc-arm-none-eabi-10.3-2021.10/bin/../lib/gcc/arm-none-eabi/10.3.1/../../../../arm-none-eabi/lib/thumb/v7-m/nofp\libg.a(lib_a-readr.o)
                0x08004194                _read_r
 .text._fstat_r
                0x080041c0       0x28 d:/clion/tools/gcc-arm-none-eabi-10.3-2021.10-win32/gcc-arm-none-eabi-10.3-2021.10/bin/../lib/gcc/arm-none-eabi/10.3.1/../../../../arm-none-eabi/lib/thumb/v7-m/nofp\libg.a(lib_a-fstatr.o)
                0x080041c0                _fstat_r
 .text._isatty_r
                0x080041e8       0x24 d:/clion/tools/gcc-arm-none-eabi-10.3-2021.10-win32/gcc-arm-none-eabi-10.3-2021.10/bin/../lib/gcc/arm-none-eabi/10.3.1/../../../../arm-none-eabi/lib/thumb/v7-m/nofp\libg.a(lib_a-isattyr.o)
                0x080041e8                _isatty_r
 *(.glue_7)
 .glue_7        0x0800420c        0x0 linker stubs
 *(.glue_7t)
 .glue_7t       0x0800420c        0x0 linker stubs
 *(.eh_frame)
 .eh_frame      0x0800420c        0x0 d:/clion/tools/gcc-arm-none-eabi-10.3-2021.10-win32/gcc-arm-none-eabi-10.3-2021.10/bin/../lib/gcc/arm-none-eabi/10.3.1/thumb/v7-m/nofp/crtbegin.o
 *(.init)
 .init          0x0800420c        0x4 d:/clion/tools/gcc-arm-none-eabi-10.3-2021.10-win32/gcc-arm-none-eabi-10.3-2021.10/bin/../lib/gcc/arm-none-eabi/10.3.1/thumb/v7-m/nofp/crti.o
                0x0800420c                _init
 .init          0x08004210        0x8 d:/clion/tools/gcc-arm-none-eabi-10.3-2021.10-win32/gcc-arm-none-eabi-10.3-2021.10/bin/../lib/gcc/arm-none-eabi/10.3.1/thumb/v7-m/nofp/crtn.o
 *(.fini)
 .fini          0x08004218        0x4 d:/clion/tools/gcc-arm-none-eabi-10.3-2021.10-win32/gcc-arm-none-eabi-10.3-2021.10/bin/../lib/gcc/arm-none-eabi/10.3.1/thumb/v7-m/nofp/crti.o
                0x08004218                _fini
 .fini          0x0800421c        0x8 d:/clion/tools/gcc-arm-none-eabi-10.3-2021.10-win32/gcc-arm-none-eabi-10.3-2021.10/bin/../lib/gcc/arm-none-eabi/10.3.1/thumb/v7-m/nofp/crtn.o
                0x08004224                . = ALIGN (0x4)
                0x08004224                _etext = .

.vfp11_veneer   0x08004224        0x0
 .vfp11_veneer  0x08004224        0x0 linker stubs

.v4_bx          0x08004224        0x0
 .v4_bx         0x08004224        0x0 linker stubs

.iplt           0x08004224        0x0
 .iplt          0x08004224        0x0 d:/clion/tools/gcc-arm-none-eabi-10.3-2021.10-win32/gcc-arm-none-eabi-10.3-2021.10/bin/../lib/gcc/arm-none-eabi/10.3.1/thumb/v7-m/nofp/crtbegin.o

.rodata         0x08004224       0x70
                0x08004224                . = ALIGN (0x4)
 *(.rodata)
 *(.rodata*)
 .rodata.aPLLMULFactorTable.1
                0x08004224       0x10 CMakeFiles/test.elf.dir/Drivers/STM32F1xx_HAL_Driver/Src/stm32f1xx_hal_rcc.c.obj
 .rodata.aPredivFactorTable.0
                0x08004234        0x2 CMakeFiles/test.elf.dir/Drivers/STM32F1xx_HAL_Driver/Src/stm32f1xx_hal_rcc.c.obj
 *fill*         0x08004236        0x2 
 .rodata.vTaskStartScheduler.str1.4
                0x08004238        0x5 CMakeFiles/test.elf.dir/FreeRTOS_M3_gcc/src/tasks.c.obj
 *fill*         0x0800423d        0x3 
 .rodata.prvCheckForValidListAndQueue.str1.4
                0x08004240        0x5 CMakeFiles/test.elf.dir/FreeRTOS_M3_gcc/src/timers.c.obj
 *fill*         0x08004245        0x3 
 .rodata.xTimerCreateTimerTask.str1.4
                0x08004248        0x8 CMakeFiles/test.elf.dir/FreeRTOS_M3_gcc/src/timers.c.obj
 .rodata.vTask4.str1.4
                0x08004250        0x7 CMakeFiles/test.elf.dir/Src/main.c.obj
 *fill*         0x08004257        0x1 
 .rodata.main.str1.4
                0x08004258       0x1a CMakeFiles/test.elf.dir/Src/main.c.obj
 *fill*         0x08004272        0x2 
 .rodata.AHBPrescTable
                0x08004274       0x10 CMakeFiles/test.elf.dir/Src/system_stm32f1xx.c.obj
                0x08004274                AHBPrescTable
 .rodata.APBPrescTable
                0x08004284        0x8 CMakeFiles/test.elf.dir/Src/system_stm32f1xx.c.obj
                0x08004284                APBPrescTable
 .rodata._global_impure_ptr
                0x0800428c        0x4 d:/clion/tools/gcc-arm-none-eabi-10.3-2021.10-win32/gcc-arm-none-eabi-10.3-2021.10/bin/../lib/gcc/arm-none-eabi/10.3.1/../../../../arm-none-eabi/lib/thumb/v7-m/nofp\libg.a(lib_a-impure.o)
                0x0800428c                _global_impure_ptr
 .rodata._puts_r.str1.4
                0x08004290        0x2 d:/clion/tools/gcc-arm-none-eabi-10.3-2021.10-win32/gcc-arm-none-eabi-10.3-2021.10/bin/../lib/gcc/arm-none-eabi/10.3.1/../../../../arm-none-eabi/lib/thumb/v7-m/nofp\libg.a(lib_a-puts.o)
                0x08004294                . = ALIGN (0x4)
 *fill*         0x08004292        0x2 

.rel.dyn        0x08004294        0x0
 .rel.iplt      0x08004294        0x0 d:/clion/tools/gcc-arm-none-eabi-10.3-2021.10-win32/gcc-arm-none-eabi-10.3-2021.10/bin/../lib/gcc/arm-none-eabi/10.3.1/thumb/v7-m/nofp/crtbegin.o

.ARM.extab      0x08004294        0x0
                0x08004294                . = ALIGN (0x4)
 *(.ARM.extab* .gnu.linkonce.armextab.*)
                0x08004294                . = ALIGN (0x4)

.ARM            0x08004294        0x0
                0x08004294                . = ALIGN (0x4)
                0x08004294                __exidx_start = .
 *(.ARM.exidx*)
                0x08004294                __exidx_end = .
                0x08004294                . = ALIGN (0x4)

.preinit_array  0x08004294        0x0
                0x08004294                . = ALIGN (0x4)
                0x08004294                PROVIDE (__preinit_array_start = .)
 *(.preinit_array*)
                0x08004294                PROVIDE (__preinit_array_end = .)
                0x08004294                . = ALIGN (0x4)

.init_array     0x08004294        0x8
                0x08004294                . = ALIGN (0x4)
                0x08004294                PROVIDE (__init_array_start = .)
 *(SORT_BY_NAME(.init_array.*))
 .init_array.00000
                0x08004294        0x4 d:/clion/tools/gcc-arm-none-eabi-10.3-2021.10-win32/gcc-arm-none-eabi-10.3-2021.10/bin/../lib/gcc/arm-none-eabi/10.3.1/../../../../arm-none-eabi/lib/thumb/v7-m/nofp\libg.a(lib_a-__call_atexit.o)
 *(.init_array*)
 .init_array    0x08004298        0x4 d:/clion/tools/gcc-arm-none-eabi-10.3-2021.10-win32/gcc-arm-none-eabi-10.3-2021.10/bin/../lib/gcc/arm-none-eabi/10.3.1/thumb/v7-m/nofp/crtbegin.o
                0x0800429c                PROVIDE (__init_array_end = .)
                0x0800429c                . = ALIGN (0x4)

.fini_array     0x0800429c        0x4
                0x0800429c                . = ALIGN (0x4)
                0x0800429c                PROVIDE (__fini_array_start = .)
 *(SORT_BY_NAME(.fini_array.*))
 *(.fini_array*)
 .fini_array    0x0800429c        0x4 d:/clion/tools/gcc-arm-none-eabi-10.3-2021.10-win32/gcc-arm-none-eabi-10.3-2021.10/bin/../lib/gcc/arm-none-eabi/10.3.1/thumb/v7-m/nofp/crtbegin.o
                0x080042a0                PROVIDE (__fini_array_end = .)
                0x080042a0                . = ALIGN (0x4)
                0x080042a0                _sidata = LOADADDR (.data)

.data           0x20000000      0x854 load address 0x080042a0
                0x20000000                . = ALIGN (0x4)
                0x20000000                _sdata = .
 *(.data)
 *(.data*)
 .data.uwTickFreq
                0x20000000        0x1 CMakeFiles/test.elf.dir/Drivers/STM32F1xx_HAL_Driver/Src/stm32f1xx_hal.c.obj
                0x20000000                uwTickFreq
 *fill*         0x20000001        0x3 
 .data.uwTickPrio
                0x20000004        0x4 CMakeFiles/test.elf.dir/Drivers/STM32F1xx_HAL_Driver/Src/stm32f1xx_hal.c.obj
                0x20000004                uwTickPrio
 .data.uxCriticalNesting
                0x20000008        0x4 CMakeFiles/test.elf.dir/FreeRTOS_M3_gcc/portable/ARM_CM3/port.c.obj
 .data.uxTopUsedPriority
                0x2000000c        0x4 CMakeFiles/test.elf.dir/FreeRTOS_M3_gcc/src/tasks.c.obj
                0x2000000c                uxTopUsedPriority
 .data.SystemCoreClock
                0x20000010        0x4 CMakeFiles/test.elf.dir/Src/system_stm32f1xx.c.obj
                0x20000010                SystemCoreClock
 .data._impure_ptr
                0x20000014        0x4 d:/clion/tools/gcc-arm-none-eabi-10.3-2021.10-win32/gcc-arm-none-eabi-10.3-2021.10/bin/../lib/gcc/arm-none-eabi/10.3.1/../../../../arm-none-eabi/lib/thumb/v7-m/nofp\libg.a(lib_a-impure.o)
                0x20000014                _impure_ptr
 .data.impure_data
                0x20000018      0x428 d:/clion/tools/gcc-arm-none-eabi-10.3-2021.10-win32/gcc-arm-none-eabi-10.3-2021.10/bin/../lib/gcc/arm-none-eabi/10.3.1/../../../../arm-none-eabi/lib/thumb/v7-m/nofp\libg.a(lib_a-impure.o)
 .data.__atexit_recursive_mutex
                0x20000440        0x4 d:/clion/tools/gcc-arm-none-eabi-10.3-2021.10-win32/gcc-arm-none-eabi-10.3-2021.10/bin/../lib/gcc/arm-none-eabi/10.3.1/../../../../arm-none-eabi/lib/thumb/v7-m/nofp\libg.a(lib_a-__call_atexit.o)
                0x20000440                __atexit_recursive_mutex
 .data.__malloc_av_
                0x20000444      0x408 d:/clion/tools/gcc-arm-none-eabi-10.3-2021.10-win32/gcc-arm-none-eabi-10.3-2021.10/bin/../lib/gcc/arm-none-eabi/10.3.1/../../../../arm-none-eabi/lib/thumb/v7-m/nofp\libg.a(lib_a-mallocr.o)
                0x20000444                __malloc_av_
 .data.__malloc_sbrk_base
                0x2000084c        0x4 d:/clion/tools/gcc-arm-none-eabi-10.3-2021.10-win32/gcc-arm-none-eabi-10.3-2021.10/bin/../lib/gcc/arm-none-eabi/10.3.1/../../../../arm-none-eabi/lib/thumb/v7-m/nofp\libg.a(lib_a-mallocr.o)
                0x2000084c                __malloc_sbrk_base
 .data.__malloc_trim_threshold
                0x20000850        0x4 d:/clion/tools/gcc-arm-none-eabi-10.3-2021.10-win32/gcc-arm-none-eabi-10.3-2021.10/bin/../lib/gcc/arm-none-eabi/10.3.1/../../../../arm-none-eabi/lib/thumb/v7-m/nofp\libg.a(lib_a-mallocr.o)
                0x20000850                __malloc_trim_threshold
 *(.RamFunc)
 *(.RamFunc*)
                0x20000854                . = ALIGN (0x4)
                0x20000854                _edata = .

.igot.plt       0x20000854        0x0 load address 0x08004af4
 .igot.plt      0x20000854        0x0 d:/clion/tools/gcc-arm-none-eabi-10.3-2021.10-win32/gcc-arm-none-eabi-10.3-2021.10/bin/../lib/gcc/arm-none-eabi/10.3.1/thumb/v7-m/nofp/crtbegin.o
                0x20000854                . = ALIGN (0x4)

.bss            0x20000854     0x2c6c load address 0x08004af4
                0x20000854                _sbss = .
                0x20000854                __bss_start__ = _sbss
 *(.bss)
 .bss           0x20000854       0x1c d:/clion/tools/gcc-arm-none-eabi-10.3-2021.10-win32/gcc-arm-none-eabi-10.3-2021.10/bin/../lib/gcc/arm-none-eabi/10.3.1/thumb/v7-m/nofp/crtbegin.o
 *(.bss*)
 .bss.uwTick    0x20000870        0x4 CMakeFiles/test.elf.dir/Drivers/STM32F1xx_HAL_Driver/Src/stm32f1xx_hal.c.obj
                0x20000870                uwTick
 .bss.pxEnd     0x20000874        0x4 CMakeFiles/test.elf.dir/FreeRTOS_M3_gcc/portable/MemMang/heap_4.c.obj
 .bss.ucHeap    0x20000878     0x2800 CMakeFiles/test.elf.dir/FreeRTOS_M3_gcc/portable/MemMang/heap_4.c.obj
 .bss.xFreeBytesRemaining
                0x20003078        0x4 CMakeFiles/test.elf.dir/FreeRTOS_M3_gcc/portable/MemMang/heap_4.c.obj
 .bss.xMinimumEverFreeBytesRemaining
                0x2000307c        0x4 CMakeFiles/test.elf.dir/FreeRTOS_M3_gcc/portable/MemMang/heap_4.c.obj
 .bss.xNumberOfSuccessfulAllocations
                0x20003080        0x4 CMakeFiles/test.elf.dir/FreeRTOS_M3_gcc/portable/MemMang/heap_4.c.obj
 .bss.xNumberOfSuccessfulFrees
                0x20003084        0x4 CMakeFiles/test.elf.dir/FreeRTOS_M3_gcc/portable/MemMang/heap_4.c.obj
 .bss.xStart    0x20003088        0x8 CMakeFiles/test.elf.dir/FreeRTOS_M3_gcc/portable/MemMang/heap_4.c.obj
 .bss.xQueueRegistry
                0x20003090       0x40 CMakeFiles/test.elf.dir/FreeRTOS_M3_gcc/src/queue.c.obj
                0x20003090                xQueueRegistry
 .bss.pxCurrentTCB
                0x200030d0        0x4 CMakeFiles/test.elf.dir/FreeRTOS_M3_gcc/src/tasks.c.obj
                0x200030d0                pxCurrentTCB
 .bss.pxDelayedTaskList
                0x200030d4        0x4 CMakeFiles/test.elf.dir/FreeRTOS_M3_gcc/src/tasks.c.obj
 .bss.pxOverflowDelayedTaskList
                0x200030d8        0x4 CMakeFiles/test.elf.dir/FreeRTOS_M3_gcc/src/tasks.c.obj
 .bss.pxReadyTasksLists
                0x200030dc      0x280 CMakeFiles/test.elf.dir/FreeRTOS_M3_gcc/src/tasks.c.obj
 .bss.uxCurrentNumberOfTasks
                0x2000335c        0x4 CMakeFiles/test.elf.dir/FreeRTOS_M3_gcc/src/tasks.c.obj
 .bss.uxDeletedTasksWaitingCleanUp
                0x20003360        0x4 CMakeFiles/test.elf.dir/FreeRTOS_M3_gcc/src/tasks.c.obj
 .bss.uxSchedulerSuspended
                0x20003364        0x4 CMakeFiles/test.elf.dir/FreeRTOS_M3_gcc/src/tasks.c.obj
 .bss.uxTaskNumber
                0x20003368        0x4 CMakeFiles/test.elf.dir/FreeRTOS_M3_gcc/src/tasks.c.obj
 .bss.uxTopReadyPriority
                0x2000336c        0x4 CMakeFiles/test.elf.dir/FreeRTOS_M3_gcc/src/tasks.c.obj
 .bss.xDelayedTaskList1
                0x20003370       0x14 CMakeFiles/test.elf.dir/FreeRTOS_M3_gcc/src/tasks.c.obj
 .bss.xDelayedTaskList2
                0x20003384       0x14 CMakeFiles/test.elf.dir/FreeRTOS_M3_gcc/src/tasks.c.obj
 .bss.xIdleTaskHandle
                0x20003398        0x4 CMakeFiles/test.elf.dir/FreeRTOS_M3_gcc/src/tasks.c.obj
 .bss.xNextTaskUnblockTime
                0x2000339c        0x4 CMakeFiles/test.elf.dir/FreeRTOS_M3_gcc/src/tasks.c.obj
 .bss.xNumOfOverflows
                0x200033a0        0x4 CMakeFiles/test.elf.dir/FreeRTOS_M3_gcc/src/tasks.c.obj
 .bss.xPendedTicks
                0x200033a4        0x4 CMakeFiles/test.elf.dir/FreeRTOS_M3_gcc/src/tasks.c.obj
 .bss.xPendingReadyList
                0x200033a8       0x14 CMakeFiles/test.elf.dir/FreeRTOS_M3_gcc/src/tasks.c.obj
 .bss.xSchedulerRunning
                0x200033bc        0x4 CMakeFiles/test.elf.dir/FreeRTOS_M3_gcc/src/tasks.c.obj
 .bss.xSuspendedTaskList
                0x200033c0       0x14 CMakeFiles/test.elf.dir/FreeRTOS_M3_gcc/src/tasks.c.obj
 .bss.xTasksWaitingTermination
                0x200033d4       0x14 CMakeFiles/test.elf.dir/FreeRTOS_M3_gcc/src/tasks.c.obj
 .bss.xTickCount
                0x200033e8        0x4 CMakeFiles/test.elf.dir/FreeRTOS_M3_gcc/src/tasks.c.obj
 .bss.xYieldPending
                0x200033ec        0x4 CMakeFiles/test.elf.dir/FreeRTOS_M3_gcc/src/tasks.c.obj
 .bss.pxCurrentTimerList
                0x200033f0        0x4 CMakeFiles/test.elf.dir/FreeRTOS_M3_gcc/src/timers.c.obj
 .bss.pxOverflowTimerList
                0x200033f4        0x4 CMakeFiles/test.elf.dir/FreeRTOS_M3_gcc/src/timers.c.obj
 .bss.xActiveTimerList1
                0x200033f8       0x14 CMakeFiles/test.elf.dir/FreeRTOS_M3_gcc/src/timers.c.obj
 .bss.xActiveTimerList2
                0x2000340c       0x14 CMakeFiles/test.elf.dir/FreeRTOS_M3_gcc/src/timers.c.obj
 .bss.xLastTime.0
                0x20003420        0x4 CMakeFiles/test.elf.dir/FreeRTOS_M3_gcc/src/timers.c.obj
 .bss.xTimerQueue
                0x20003424        0x4 CMakeFiles/test.elf.dir/FreeRTOS_M3_gcc/src/timers.c.obj
 .bss.xTimerTaskHandle
                0x20003428        0x4 CMakeFiles/test.elf.dir/FreeRTOS_M3_gcc/src/timers.c.obj
 .bss.__sbrk_heap_end
                0x2000342c        0x4 CMakeFiles/test.elf.dir/Src/sysmem.c.obj
 .bss.huart1    0x20003430       0x48 CMakeFiles/test.elf.dir/Src/usart.c.obj
                0x20003430                huart1
 .bss.__lock___atexit_recursive_mutex
                0x20003478        0x1 d:/clion/tools/gcc-arm-none-eabi-10.3-2021.10-win32/gcc-arm-none-eabi-10.3-2021.10/bin/../lib/gcc/arm-none-eabi/10.3.1/../../../../arm-none-eabi/lib/thumb/v7-m/nofp\libg.a(lib_a-lock.o)
                0x20003478                __lock___atexit_recursive_mutex
 *fill*         0x20003479        0x3 
 .bss.__lock___malloc_recursive_mutex
                0x2000347c        0x1 d:/clion/tools/gcc-arm-none-eabi-10.3-2021.10-win32/gcc-arm-none-eabi-10.3-2021.10/bin/../lib/gcc/arm-none-eabi/10.3.1/../../../../arm-none-eabi/lib/thumb/v7-m/nofp\libg.a(lib_a-lock.o)
                0x2000347c                __lock___malloc_recursive_mutex
 *fill*         0x2000347d        0x3 
 .bss.__lock___sfp_recursive_mutex
                0x20003480        0x1 d:/clion/tools/gcc-arm-none-eabi-10.3-2021.10-win32/gcc-arm-none-eabi-10.3-2021.10/bin/../lib/gcc/arm-none-eabi/10.3.1/../../../../arm-none-eabi/lib/thumb/v7-m/nofp\libg.a(lib_a-lock.o)
                0x20003480                __lock___sfp_recursive_mutex
 *fill*         0x20003481        0x3 
 .bss.__lock___sinit_recursive_mutex
                0x20003484        0x1 d:/clion/tools/gcc-arm-none-eabi-10.3-2021.10-win32/gcc-arm-none-eabi-10.3-2021.10/bin/../lib/gcc/arm-none-eabi/10.3.1/../../../../arm-none-eabi/lib/thumb/v7-m/nofp\libg.a(lib_a-lock.o)
                0x20003484                __lock___sinit_recursive_mutex
 *fill*         0x20003485        0x3 
 .bss.__malloc_current_mallinfo
                0x20003488       0x28 d:/clion/tools/gcc-arm-none-eabi-10.3-2021.10-win32/gcc-arm-none-eabi-10.3-2021.10/bin/../lib/gcc/arm-none-eabi/10.3.1/../../../../arm-none-eabi/lib/thumb/v7-m/nofp\libg.a(lib_a-mallocr.o)
                0x20003488                __malloc_current_mallinfo
 .bss.__malloc_max_sbrked_mem
                0x200034b0        0x4 d:/clion/tools/gcc-arm-none-eabi-10.3-2021.10-win32/gcc-arm-none-eabi-10.3-2021.10/bin/../lib/gcc/arm-none-eabi/10.3.1/../../../../arm-none-eabi/lib/thumb/v7-m/nofp\libg.a(lib_a-mallocr.o)
                0x200034b0                __malloc_max_sbrked_mem
 .bss.__malloc_max_total_mem
                0x200034b4        0x4 d:/clion/tools/gcc-arm-none-eabi-10.3-2021.10-win32/gcc-arm-none-eabi-10.3-2021.10/bin/../lib/gcc/arm-none-eabi/10.3.1/../../../../arm-none-eabi/lib/thumb/v7-m/nofp\libg.a(lib_a-mallocr.o)
                0x200034b4                __malloc_max_total_mem
 .bss.__malloc_top_pad
                0x200034b8        0x4 d:/clion/tools/gcc-arm-none-eabi-10.3-2021.10-win32/gcc-arm-none-eabi-10.3-2021.10/bin/../lib/gcc/arm-none-eabi/10.3.1/../../../../arm-none-eabi/lib/thumb/v7-m/nofp\libg.a(lib_a-mallocr.o)
                0x200034b8                __malloc_top_pad
 .bss.errno     0x200034bc        0x4 d:/clion/tools/gcc-arm-none-eabi-10.3-2021.10-win32/gcc-arm-none-eabi-10.3-2021.10/bin/../lib/gcc/arm-none-eabi/10.3.1/../../../../arm-none-eabi/lib/thumb/v7-m/nofp\libg.a(lib_a-reent.o)
                0x200034bc                errno
 *(COMMON)
                0x200034c0                . = ALIGN (0x4)
                0x200034c0                _ebss = .
                0x200034c0                __bss_end__ = _ebss

._user_heap_stack
                0x200034c0      0x600 load address 0x08004af4
                0x200034c0                . = ALIGN (0x8)
                [!provide]                PROVIDE (end = .)
                0x200034c0                PROVIDE (_end = .)
                0x200036c0                . = (. + _Min_Heap_Size)
 *fill*         0x200034c0      0x200 
                0x20003ac0                . = (. + _Min_Stack_Size)
 *fill*         0x200036c0      0x400 
                0x20003ac0                . = ALIGN (0x8)

/DISCARD/
 libc.a(*)
 libm.a(*)
 libgcc.a(*)

.ARM.attributes
                0x00000000       0x29
 *(.ARM.attributes)
 .ARM.attributes
                0x00000000       0x1d d:/clion/tools/gcc-arm-none-eabi-10.3-2021.10-win32/gcc-arm-none-eabi-10.3-2021.10/bin/../lib/gcc/arm-none-eabi/10.3.1/thumb/v7-m/nofp/crti.o
 .ARM.attributes
                0x0000001d       0x2d d:/clion/tools/gcc-arm-none-eabi-10.3-2021.10-win32/gcc-arm-none-eabi-10.3-2021.10/bin/../lib/gcc/arm-none-eabi/10.3.1/thumb/v7-m/nofp/crtbegin.o
 .ARM.attributes
                0x0000004a       0x2d CMakeFiles/test.elf.dir/Drivers/STM32F1xx_HAL_Driver/Src/stm32f1xx_hal.c.obj
 .ARM.attributes
                0x00000077       0x2d CMakeFiles/test.elf.dir/Drivers/STM32F1xx_HAL_Driver/Src/stm32f1xx_hal_cortex.c.obj
 .ARM.attributes
                0x000000a4       0x2d CMakeFiles/test.elf.dir/Drivers/STM32F1xx_HAL_Driver/Src/stm32f1xx_hal_gpio.c.obj
 .ARM.attributes
                0x000000d1       0x2d CMakeFiles/test.elf.dir/Drivers/STM32F1xx_HAL_Driver/Src/stm32f1xx_hal_rcc.c.obj
 .ARM.attributes
                0x000000fe       0x2d CMakeFiles/test.elf.dir/Drivers/STM32F1xx_HAL_Driver/Src/stm32f1xx_hal_uart.c.obj
 .ARM.attributes
                0x0000012b       0x2d CMakeFiles/test.elf.dir/FreeRTOS_M3_gcc/portable/ARM_CM3/port.c.obj
 .ARM.attributes
                0x00000158       0x2d CMakeFiles/test.elf.dir/FreeRTOS_M3_gcc/portable/MemMang/heap_4.c.obj
 .ARM.attributes
                0x00000185       0x2d CMakeFiles/test.elf.dir/FreeRTOS_M3_gcc/src/list.c.obj
 .ARM.attributes
                0x000001b2       0x2d CMakeFiles/test.elf.dir/FreeRTOS_M3_gcc/src/queue.c.obj
 .ARM.attributes
                0x000001df       0x2d CMakeFiles/test.elf.dir/FreeRTOS_M3_gcc/src/tasks.c.obj
 .ARM.attributes
                0x0000020c       0x2d CMakeFiles/test.elf.dir/FreeRTOS_M3_gcc/src/timers.c.obj
 .ARM.attributes
                0x00000239       0x2d CMakeFiles/test.elf.dir/Src/gpio.c.obj
 .ARM.attributes
                0x00000266       0x2d CMakeFiles/test.elf.dir/Src/main.c.obj
 .ARM.attributes
                0x00000293       0x2d CMakeFiles/test.elf.dir/Src/stm32f1xx_hal_msp.c.obj
 .ARM.attributes
                0x000002c0       0x2d CMakeFiles/test.elf.dir/Src/stm32f1xx_it.c.obj
 .ARM.attributes
                0x000002ed       0x2d CMakeFiles/test.elf.dir/Src/syscalls.c.obj
 .ARM.attributes
                0x0000031a       0x2d CMakeFiles/test.elf.dir/Src/sysmem.c.obj
 .ARM.attributes
                0x00000347       0x2d CMakeFiles/test.elf.dir/Src/system_stm32f1xx.c.obj
 .ARM.attributes
                0x00000374       0x2d CMakeFiles/test.elf.dir/Src/usart.c.obj
 .ARM.attributes
                0x000003a1       0x21 CMakeFiles/test.elf.dir/Startup/startup_stm32f103c8tx.s.obj
 .ARM.attributes
                0x000003c2       0x2d d:/clion/tools/gcc-arm-none-eabi-10.3-2021.10-win32/gcc-arm-none-eabi-10.3-2021.10/bin/../lib/gcc/arm-none-eabi/10.3.1/../../../../arm-none-eabi/lib/thumb/v7-m/nofp\libg.a(lib_a-errno.o)
 .ARM.attributes
                0x000003ef       0x2d d:/clion/tools/gcc-arm-none-eabi-10.3-2021.10-win32/gcc-arm-none-eabi-10.3-2021.10/bin/../lib/gcc/arm-none-eabi/10.3.1/../../../../arm-none-eabi/lib/thumb/v7-m/nofp\libg.a(lib_a-impure.o)
 .ARM.attributes
                0x0000041c       0x2d d:/clion/tools/gcc-arm-none-eabi-10.3-2021.10-win32/gcc-arm-none-eabi-10.3-2021.10/bin/../lib/gcc/arm-none-eabi/10.3.1/../../../../arm-none-eabi/lib/thumb/v7-m/nofp\libg.a(lib_a-init.o)
 .ARM.attributes
                0x00000449       0x1b d:/clion/tools/gcc-arm-none-eabi-10.3-2021.10-win32/gcc-arm-none-eabi-10.3-2021.10/bin/../lib/gcc/arm-none-eabi/10.3.1/../../../../arm-none-eabi/lib/thumb/v7-m/nofp\libg.a(lib_a-memcpy.o)
 .ARM.attributes
                0x00000464       0x2d d:/clion/tools/gcc-arm-none-eabi-10.3-2021.10-win32/gcc-arm-none-eabi-10.3-2021.10/bin/../lib/gcc/arm-none-eabi/10.3.1/../../../../arm-none-eabi/lib/thumb/v7-m/nofp\libg.a(lib_a-memset.o)
 .ARM.attributes
                0x00000491       0x2d d:/clion/tools/gcc-arm-none-eabi-10.3-2021.10-win32/gcc-arm-none-eabi-10.3-2021.10/bin/../lib/gcc/arm-none-eabi/10.3.1/../../../../arm-none-eabi/lib/thumb/v7-m/nofp\libg.a(lib_a-puts.o)
 .ARM.attributes
                0x000004be       0x2d d:/clion/tools/gcc-arm-none-eabi-10.3-2021.10-win32/gcc-arm-none-eabi-10.3-2021.10/bin/../lib/gcc/arm-none-eabi/10.3.1/../../../../arm-none-eabi/lib/thumb/v7-m/nofp\libg.a(lib_a-strlen-stub.o)
 .ARM.attributes
                0x000004eb       0x2d d:/clion/tools/gcc-arm-none-eabi-10.3-2021.10-win32/gcc-arm-none-eabi-10.3-2021.10/bin/../lib/gcc/arm-none-eabi/10.3.1/../../../../arm-none-eabi/lib/thumb/v7-m/nofp\libg.a(lib_a-__call_atexit.o)
 .ARM.attributes
                0x00000518       0x2d d:/clion/tools/gcc-arm-none-eabi-10.3-2021.10-win32/gcc-arm-none-eabi-10.3-2021.10/bin/../lib/gcc/arm-none-eabi/10.3.1/../../../../arm-none-eabi/lib/thumb/v7-m/nofp\libg.a(lib_a-atexit.o)
 .ARM.attributes
                0x00000545       0x2d d:/clion/tools/gcc-arm-none-eabi-10.3-2021.10-win32/gcc-arm-none-eabi-10.3-2021.10/bin/../lib/gcc/arm-none-eabi/10.3.1/../../../../arm-none-eabi/lib/thumb/v7-m/nofp\libg.a(lib_a-findfp.o)
 .ARM.attributes
                0x00000572       0x2d d:/clion/tools/gcc-arm-none-eabi-10.3-2021.10-win32/gcc-arm-none-eabi-10.3-2021.10/bin/../lib/gcc/arm-none-eabi/10.3.1/../../../../arm-none-eabi/lib/thumb/v7-m/nofp\libg.a(lib_a-fini.o)
 .ARM.attributes
                0x0000059f       0x2d d:/clion/tools/gcc-arm-none-eabi-10.3-2021.10-win32/gcc-arm-none-eabi-10.3-2021.10/bin/../lib/gcc/arm-none-eabi/10.3.1/../../../../arm-none-eabi/lib/thumb/v7-m/nofp\libg.a(lib_a-freer.o)
 .ARM.attributes
                0x000005cc       0x2d d:/clion/tools/gcc-arm-none-eabi-10.3-2021.10-win32/gcc-arm-none-eabi-10.3-2021.10/bin/../lib/gcc/arm-none-eabi/10.3.1/../../../../arm-none-eabi/lib/thumb/v7-m/nofp\libg.a(lib_a-fvwrite.o)
 .ARM.attributes
                0x000005f9       0x2d d:/clion/tools/gcc-arm-none-eabi-10.3-2021.10-win32/gcc-arm-none-eabi-10.3-2021.10/bin/../lib/gcc/arm-none-eabi/10.3.1/../../../../arm-none-eabi/lib/thumb/v7-m/nofp\libg.a(lib_a-fwalk.o)
 .ARM.attributes
                0x00000626       0x2d d:/clion/tools/gcc-arm-none-eabi-10.3-2021.10-win32/gcc-arm-none-eabi-10.3-2021.10/bin/../lib/gcc/arm-none-eabi/10.3.1/../../../../arm-none-eabi/lib/thumb/v7-m/nofp\libg.a(lib_a-lock.o)
 .ARM.attributes
                0x00000653       0x2d d:/clion/tools/gcc-arm-none-eabi-10.3-2021.10-win32/gcc-arm-none-eabi-10.3-2021.10/bin/../lib/gcc/arm-none-eabi/10.3.1/../../../../arm-none-eabi/lib/thumb/v7-m/nofp\libg.a(lib_a-mallocr.o)
 .ARM.attributes
                0x00000680       0x2d d:/clion/tools/gcc-arm-none-eabi-10.3-2021.10-win32/gcc-arm-none-eabi-10.3-2021.10/bin/../lib/gcc/arm-none-eabi/10.3.1/../../../../arm-none-eabi/lib/thumb/v7-m/nofp\libg.a(lib_a-memchr-stub.o)
 .ARM.attributes
                0x000006ad       0x2d d:/clion/tools/gcc-arm-none-eabi-10.3-2021.10-win32/gcc-arm-none-eabi-10.3-2021.10/bin/../lib/gcc/arm-none-eabi/10.3.1/../../../../arm-none-eabi/lib/thumb/v7-m/nofp\libg.a(lib_a-memmove.o)
 .ARM.attributes
                0x000006da       0x2d d:/clion/tools/gcc-arm-none-eabi-10.3-2021.10-win32/gcc-arm-none-eabi-10.3-2021.10/bin/../lib/gcc/arm-none-eabi/10.3.1/../../../../arm-none-eabi/lib/thumb/v7-m/nofp\libg.a(lib_a-mlock.o)
 .ARM.attributes
                0x00000707       0x2d d:/clion/tools/gcc-arm-none-eabi-10.3-2021.10-win32/gcc-arm-none-eabi-10.3-2021.10/bin/../lib/gcc/arm-none-eabi/10.3.1/../../../../arm-none-eabi/lib/thumb/v7-m/nofp\libg.a(lib_a-reallocr.o)
 .ARM.attributes
                0x00000734       0x2d d:/clion/tools/gcc-arm-none-eabi-10.3-2021.10-win32/gcc-arm-none-eabi-10.3-2021.10/bin/../lib/gcc/arm-none-eabi/10.3.1/../../../../arm-none-eabi/lib/thumb/v7-m/nofp\libg.a(lib_a-sbrkr.o)
 .ARM.attributes
                0x00000761       0x2d d:/clion/tools/gcc-arm-none-eabi-10.3-2021.10-win32/gcc-arm-none-eabi-10.3-2021.10/bin/../lib/gcc/arm-none-eabi/10.3.1/../../../../arm-none-eabi/lib/thumb/v7-m/nofp\libg.a(lib_a-stdio.o)
 .ARM.attributes
                0x0000078e       0x2d d:/clion/tools/gcc-arm-none-eabi-10.3-2021.10-win32/gcc-arm-none-eabi-10.3-2021.10/bin/../lib/gcc/arm-none-eabi/10.3.1/../../../../arm-none-eabi/lib/thumb/v7-m/nofp\libg.a(lib_a-writer.o)
 .ARM.attributes
                0x000007bb       0x2d d:/clion/tools/gcc-arm-none-eabi-10.3-2021.10-win32/gcc-arm-none-eabi-10.3-2021.10/bin/../lib/gcc/arm-none-eabi/10.3.1/../../../../arm-none-eabi/lib/thumb/v7-m/nofp\libg.a(lib_a-wsetup.o)
 .ARM.attributes
                0x000007e8       0x2d d:/clion/tools/gcc-arm-none-eabi-10.3-2021.10-win32/gcc-arm-none-eabi-10.3-2021.10/bin/../lib/gcc/arm-none-eabi/10.3.1/../../../../arm-none-eabi/lib/thumb/v7-m/nofp\libg.a(lib_a-__atexit.o)
 .ARM.attributes
                0x00000815       0x2d d:/clion/tools/gcc-arm-none-eabi-10.3-2021.10-win32/gcc-arm-none-eabi-10.3-2021.10/bin/../lib/gcc/arm-none-eabi/10.3.1/../../../../arm-none-eabi/lib/thumb/v7-m/nofp\libg.a(lib_a-closer.o)
 .ARM.attributes
                0x00000842       0x2d d:/clion/tools/gcc-arm-none-eabi-10.3-2021.10-win32/gcc-arm-none-eabi-10.3-2021.10/bin/../lib/gcc/arm-none-eabi/10.3.1/../../../../arm-none-eabi/lib/thumb/v7-m/nofp\libg.a(lib_a-fclose.o)
 .ARM.attributes
                0x0000086f       0x2d d:/clion/tools/gcc-arm-none-eabi-10.3-2021.10-win32/gcc-arm-none-eabi-10.3-2021.10/bin/../lib/gcc/arm-none-eabi/10.3.1/../../../../arm-none-eabi/lib/thumb/v7-m/nofp\libg.a(lib_a-fflush.o)
 .ARM.attributes
                0x0000089c       0x2d d:/clion/tools/gcc-arm-none-eabi-10.3-2021.10-win32/gcc-arm-none-eabi-10.3-2021.10/bin/../lib/gcc/arm-none-eabi/10.3.1/../../../../arm-none-eabi/lib/thumb/v7-m/nofp\libg.a(lib_a-lseekr.o)
 .ARM.attributes
                0x000008c9       0x2d d:/clion/tools/gcc-arm-none-eabi-10.3-2021.10-win32/gcc-arm-none-eabi-10.3-2021.10/bin/../lib/gcc/arm-none-eabi/10.3.1/../../../../arm-none-eabi/lib/thumb/v7-m/nofp\libg.a(lib_a-makebuf.o)
 .ARM.attributes
                0x000008f6       0x2d d:/clion/tools/gcc-arm-none-eabi-10.3-2021.10-win32/gcc-arm-none-eabi-10.3-2021.10/bin/../lib/gcc/arm-none-eabi/10.3.1/../../../../arm-none-eabi/lib/thumb/v7-m/nofp\libg.a(lib_a-readr.o)
 .ARM.attributes
                0x00000923       0x2d d:/clion/tools/gcc-arm-none-eabi-10.3-2021.10-win32/gcc-arm-none-eabi-10.3-2021.10/bin/../lib/gcc/arm-none-eabi/10.3.1/../../../../arm-none-eabi/lib/thumb/v7-m/nofp\libg.a(lib_a-reent.o)
 .ARM.attributes
                0x00000950       0x2d d:/clion/tools/gcc-arm-none-eabi-10.3-2021.10-win32/gcc-arm-none-eabi-10.3-2021.10/bin/../lib/gcc/arm-none-eabi/10.3.1/../../../../arm-none-eabi/lib/thumb/v7-m/nofp\libg.a(lib_a-fstatr.o)
 .ARM.attributes
                0x0000097d       0x2d d:/clion/tools/gcc-arm-none-eabi-10.3-2021.10-win32/gcc-arm-none-eabi-10.3-2021.10/bin/../lib/gcc/arm-none-eabi/10.3.1/../../../../arm-none-eabi/lib/thumb/v7-m/nofp\libg.a(lib_a-isattyr.o)
 .ARM.attributes
                0x000009aa       0x1d d:/clion/tools/gcc-arm-none-eabi-10.3-2021.10-win32/gcc-arm-none-eabi-10.3-2021.10/bin/../lib/gcc/arm-none-eabi/10.3.1/thumb/v7-m/nofp/crtn.o
OUTPUT(test.elf elf32-littlearm)
LOAD linker stubs
LOAD d:/clion/tools/gcc-arm-none-eabi-10.3-2021.10-win32/gcc-arm-none-eabi-10.3-2021.10/bin/../lib/gcc/arm-none-eabi/10.3.1/../../../../arm-none-eabi/lib/thumb/v7-m/nofp\libc.a
LOAD d:/clion/tools/gcc-arm-none-eabi-10.3-2021.10-win32/gcc-arm-none-eabi-10.3-2021.10/bin/../lib/gcc/arm-none-eabi/10.3.1/../../../../arm-none-eabi/lib/thumb/v7-m/nofp\libm.a
LOAD d:/clion/tools/gcc-arm-none-eabi-10.3-2021.10-win32/gcc-arm-none-eabi-10.3-2021.10/bin/../lib/gcc/arm-none-eabi/10.3.1/thumb/v7-m/nofp\libgcc.a

.debug_info     0x00000000     0xff85
 .debug_info    0x00000000      0x7a8 CMakeFiles/test.elf.dir/Drivers/STM32F1xx_HAL_Driver/Src/stm32f1xx_hal.c.obj
 .debug_info    0x000007a8      0xd8a CMakeFiles/test.elf.dir/Drivers/STM32F1xx_HAL_Driver/Src/stm32f1xx_hal_cortex.c.obj
 .debug_info    0x00001532      0x66f CMakeFiles/test.elf.dir/Drivers/STM32F1xx_HAL_Driver/Src/stm32f1xx_hal_gpio.c.obj
 .debug_info    0x00001ba1      0xa3b CMakeFiles/test.elf.dir/Drivers/STM32F1xx_HAL_Driver/Src/stm32f1xx_hal_rcc.c.obj
 .debug_info    0x000025dc     0x4212 CMakeFiles/test.elf.dir/Drivers/STM32F1xx_HAL_Driver/Src/stm32f1xx_hal_uart.c.obj
 .debug_info    0x000067ee      0x354 CMakeFiles/test.elf.dir/FreeRTOS_M3_gcc/portable/ARM_CM3/port.c.obj
 .debug_info    0x00006b42      0x5d2 CMakeFiles/test.elf.dir/FreeRTOS_M3_gcc/portable/MemMang/heap_4.c.obj
 .debug_info    0x00007114      0x2e0 CMakeFiles/test.elf.dir/FreeRTOS_M3_gcc/src/list.c.obj
 .debug_info    0x000073f4     0x2215 CMakeFiles/test.elf.dir/FreeRTOS_M3_gcc/src/queue.c.obj
 .debug_info    0x00009609     0x3085 CMakeFiles/test.elf.dir/FreeRTOS_M3_gcc/src/tasks.c.obj
 .debug_info    0x0000c68e     0x1336 CMakeFiles/test.elf.dir/FreeRTOS_M3_gcc/src/timers.c.obj
 .debug_info    0x0000d9c4      0x330 CMakeFiles/test.elf.dir/Src/gpio.c.obj
 .debug_info    0x0000dcf4      0xb54 CMakeFiles/test.elf.dir/Src/main.c.obj
 .debug_info    0x0000e848      0x211 CMakeFiles/test.elf.dir/Src/stm32f1xx_hal_msp.c.obj
 .debug_info    0x0000ea59      0x14a CMakeFiles/test.elf.dir/Src/stm32f1xx_it.c.obj
 .debug_info    0x0000eba3      0x7af CMakeFiles/test.elf.dir/Src/syscalls.c.obj
 .debug_info    0x0000f352      0x174 CMakeFiles/test.elf.dir/Src/sysmem.c.obj
 .debug_info    0x0000f4c6      0x248 CMakeFiles/test.elf.dir/Src/system_stm32f1xx.c.obj
 .debug_info    0x0000f70e      0x855 CMakeFiles/test.elf.dir/Src/usart.c.obj
 .debug_info    0x0000ff63       0x22 CMakeFiles/test.elf.dir/Startup/startup_stm32f103c8tx.s.obj

.debug_abbrev   0x00000000     0x2496
 .debug_abbrev  0x00000000      0x1f4 CMakeFiles/test.elf.dir/Drivers/STM32F1xx_HAL_Driver/Src/stm32f1xx_hal.c.obj
 .debug_abbrev  0x000001f4      0x341 CMakeFiles/test.elf.dir/Drivers/STM32F1xx_HAL_Driver/Src/stm32f1xx_hal_cortex.c.obj
 .debug_abbrev  0x00000535      0x1e6 CMakeFiles/test.elf.dir/Drivers/STM32F1xx_HAL_Driver/Src/stm32f1xx_hal_gpio.c.obj
 .debug_abbrev  0x0000071b      0x27a CMakeFiles/test.elf.dir/Drivers/STM32F1xx_HAL_Driver/Src/stm32f1xx_hal_rcc.c.obj
 .debug_abbrev  0x00000995      0x2dd CMakeFiles/test.elf.dir/Drivers/STM32F1xx_HAL_Driver/Src/stm32f1xx_hal_uart.c.obj
 .debug_abbrev  0x00000c72      0x20d CMakeFiles/test.elf.dir/FreeRTOS_M3_gcc/portable/ARM_CM3/port.c.obj
 .debug_abbrev  0x00000e7f      0x22c CMakeFiles/test.elf.dir/FreeRTOS_M3_gcc/portable/MemMang/heap_4.c.obj
 .debug_abbrev  0x000010ab      0x106 CMakeFiles/test.elf.dir/FreeRTOS_M3_gcc/src/list.c.obj
 .debug_abbrev  0x000011b1      0x2d7 CMakeFiles/test.elf.dir/FreeRTOS_M3_gcc/src/queue.c.obj
 .debug_abbrev  0x00001488      0x334 CMakeFiles/test.elf.dir/FreeRTOS_M3_gcc/src/tasks.c.obj
 .debug_abbrev  0x000017bc      0x25f CMakeFiles/test.elf.dir/FreeRTOS_M3_gcc/src/timers.c.obj
 .debug_abbrev  0x00001a1b      0x13c CMakeFiles/test.elf.dir/Src/gpio.c.obj
 .debug_abbrev  0x00001b57      0x218 CMakeFiles/test.elf.dir/Src/main.c.obj
 .debug_abbrev  0x00001d6f       0xe5 CMakeFiles/test.elf.dir/Src/stm32f1xx_hal_msp.c.obj
 .debug_abbrev  0x00001e54       0xa0 CMakeFiles/test.elf.dir/Src/stm32f1xx_it.c.obj
 .debug_abbrev  0x00001ef4      0x1a3 CMakeFiles/test.elf.dir/Src/syscalls.c.obj
 .debug_abbrev  0x00002097       0xe7 CMakeFiles/test.elf.dir/Src/sysmem.c.obj
 .debug_abbrev  0x0000217e      0x13e CMakeFiles/test.elf.dir/Src/system_stm32f1xx.c.obj
 .debug_abbrev  0x000022bc      0x1c8 CMakeFiles/test.elf.dir/Src/usart.c.obj
 .debug_abbrev  0x00002484       0x12 CMakeFiles/test.elf.dir/Startup/startup_stm32f103c8tx.s.obj

.debug_loc      0x00000000     0xc1c5
 .debug_loc     0x00000000      0x141 CMakeFiles/test.elf.dir/Drivers/STM32F1xx_HAL_Driver/Src/stm32f1xx_hal.c.obj
 .debug_loc     0x00000141      0x71f CMakeFiles/test.elf.dir/Drivers/STM32F1xx_HAL_Driver/Src/stm32f1xx_hal_cortex.c.obj
 .debug_loc     0x00000860      0x47d CMakeFiles/test.elf.dir/Drivers/STM32F1xx_HAL_Driver/Src/stm32f1xx_hal_gpio.c.obj
 .debug_loc     0x00000cdd      0x618 CMakeFiles/test.elf.dir/Drivers/STM32F1xx_HAL_Driver/Src/stm32f1xx_hal_rcc.c.obj
 .debug_loc     0x000012f5     0x487b CMakeFiles/test.elf.dir/Drivers/STM32F1xx_HAL_Driver/Src/stm32f1xx_hal_uart.c.obj
 .debug_loc     0x00005b70       0xbe CMakeFiles/test.elf.dir/FreeRTOS_M3_gcc/portable/ARM_CM3/port.c.obj
 .debug_loc     0x00005c2e      0x49c CMakeFiles/test.elf.dir/FreeRTOS_M3_gcc/portable/MemMang/heap_4.c.obj
 .debug_loc     0x000060ca       0xad CMakeFiles/test.elf.dir/FreeRTOS_M3_gcc/src/list.c.obj
 .debug_loc     0x00006177     0x1dfe CMakeFiles/test.elf.dir/FreeRTOS_M3_gcc/src/queue.c.obj
 .debug_loc     0x00007f75     0x2d8b CMakeFiles/test.elf.dir/FreeRTOS_M3_gcc/src/tasks.c.obj
 .debug_loc     0x0000ad00      0xe4d CMakeFiles/test.elf.dir/FreeRTOS_M3_gcc/src/timers.c.obj
 .debug_loc     0x0000bb4d       0xb7 CMakeFiles/test.elf.dir/Src/main.c.obj
 .debug_loc     0x0000bc04       0x15 CMakeFiles/test.elf.dir/Src/stm32f1xx_hal_msp.c.obj
 .debug_loc     0x0000bc19      0x3c5 CMakeFiles/test.elf.dir/Src/syscalls.c.obj
 .debug_loc     0x0000bfde       0x64 CMakeFiles/test.elf.dir/Src/sysmem.c.obj
 .debug_loc     0x0000c042       0xff CMakeFiles/test.elf.dir/Src/system_stm32f1xx.c.obj
 .debug_loc     0x0000c141       0x84 CMakeFiles/test.elf.dir/Src/usart.c.obj

.debug_aranges  0x00000000      0xc28
 .debug_aranges
                0x00000000       0xe0 CMakeFiles/test.elf.dir/Drivers/STM32F1xx_HAL_Driver/Src/stm32f1xx_hal.c.obj
 .debug_aranges
                0x000000e0       0x90 CMakeFiles/test.elf.dir/Drivers/STM32F1xx_HAL_Driver/Src/stm32f1xx_hal_cortex.c.obj
 .debug_aranges
                0x00000170       0x58 CMakeFiles/test.elf.dir/Drivers/STM32F1xx_HAL_Driver/Src/stm32f1xx_hal_gpio.c.obj
 .debug_aranges
                0x000001c8       0x90 CMakeFiles/test.elf.dir/Drivers/STM32F1xx_HAL_Driver/Src/stm32f1xx_hal_rcc.c.obj
 .debug_aranges
                0x00000258      0x208 CMakeFiles/test.elf.dir/Drivers/STM32F1xx_HAL_Driver/Src/stm32f1xx_hal_uart.c.obj
 .debug_aranges
                0x00000460       0x70 CMakeFiles/test.elf.dir/FreeRTOS_M3_gcc/portable/ARM_CM3/port.c.obj
 .debug_aranges
                0x000004d0       0x60 CMakeFiles/test.elf.dir/FreeRTOS_M3_gcc/portable/MemMang/heap_4.c.obj
 .debug_aranges
                0x00000530       0x40 CMakeFiles/test.elf.dir/FreeRTOS_M3_gcc/src/list.c.obj
 .debug_aranges
                0x00000570      0x160 CMakeFiles/test.elf.dir/FreeRTOS_M3_gcc/src/queue.c.obj
 .debug_aranges
                0x000006d0      0x230 CMakeFiles/test.elf.dir/FreeRTOS_M3_gcc/src/tasks.c.obj
 .debug_aranges
                0x00000900       0xf8 CMakeFiles/test.elf.dir/FreeRTOS_M3_gcc/src/timers.c.obj
 .debug_aranges
                0x000009f8       0x20 CMakeFiles/test.elf.dir/Src/gpio.c.obj
 .debug_aranges
                0x00000a18       0x58 CMakeFiles/test.elf.dir/Src/main.c.obj
 .debug_aranges
                0x00000a70       0x20 CMakeFiles/test.elf.dir/Src/stm32f1xx_hal_msp.c.obj
 .debug_aranges
                0x00000a90       0x50 CMakeFiles/test.elf.dir/Src/stm32f1xx_it.c.obj
 .debug_aranges
                0x00000ae0       0xa8 CMakeFiles/test.elf.dir/Src/syscalls.c.obj
 .debug_aranges
                0x00000b88       0x20 CMakeFiles/test.elf.dir/Src/sysmem.c.obj
 .debug_aranges
                0x00000ba8       0x28 CMakeFiles/test.elf.dir/Src/system_stm32f1xx.c.obj
 .debug_aranges
                0x00000bd0       0x30 CMakeFiles/test.elf.dir/Src/usart.c.obj
 .debug_aranges
                0x00000c00       0x28 CMakeFiles/test.elf.dir/Startup/startup_stm32f103c8tx.s.obj

.debug_ranges   0x00000000      0xee0
 .debug_ranges  0x00000000       0xd0 CMakeFiles/test.elf.dir/Drivers/STM32F1xx_HAL_Driver/Src/stm32f1xx_hal.c.obj
 .debug_ranges  0x000000d0       0xe0 CMakeFiles/test.elf.dir/Drivers/STM32F1xx_HAL_Driver/Src/stm32f1xx_hal_cortex.c.obj
 .debug_ranges  0x000001b0       0x48 CMakeFiles/test.elf.dir/Drivers/STM32F1xx_HAL_Driver/Src/stm32f1xx_hal_gpio.c.obj
 .debug_ranges  0x000001f8       0xa0 CMakeFiles/test.elf.dir/Drivers/STM32F1xx_HAL_Driver/Src/stm32f1xx_hal_rcc.c.obj
 .debug_ranges  0x00000298      0x210 CMakeFiles/test.elf.dir/Drivers/STM32F1xx_HAL_Driver/Src/stm32f1xx_hal_uart.c.obj
 .debug_ranges  0x000004a8       0x60 CMakeFiles/test.elf.dir/FreeRTOS_M3_gcc/portable/ARM_CM3/port.c.obj
 .debug_ranges  0x00000508       0x50 CMakeFiles/test.elf.dir/FreeRTOS_M3_gcc/portable/MemMang/heap_4.c.obj
 .debug_ranges  0x00000558       0x30 CMakeFiles/test.elf.dir/FreeRTOS_M3_gcc/src/list.c.obj
 .debug_ranges  0x00000588      0x228 CMakeFiles/test.elf.dir/FreeRTOS_M3_gcc/src/queue.c.obj
 .debug_ranges  0x000007b0      0x4a0 CMakeFiles/test.elf.dir/FreeRTOS_M3_gcc/src/tasks.c.obj
 .debug_ranges  0x00000c50       0xe8 CMakeFiles/test.elf.dir/FreeRTOS_M3_gcc/src/timers.c.obj
 .debug_ranges  0x00000d38       0x10 CMakeFiles/test.elf.dir/Src/gpio.c.obj
 .debug_ranges  0x00000d48       0x48 CMakeFiles/test.elf.dir/Src/main.c.obj
 .debug_ranges  0x00000d90       0x10 CMakeFiles/test.elf.dir/Src/stm32f1xx_hal_msp.c.obj
 .debug_ranges  0x00000da0       0x40 CMakeFiles/test.elf.dir/Src/stm32f1xx_it.c.obj
 .debug_ranges  0x00000de0       0x98 CMakeFiles/test.elf.dir/Src/syscalls.c.obj
 .debug_ranges  0x00000e78       0x10 CMakeFiles/test.elf.dir/Src/sysmem.c.obj
 .debug_ranges  0x00000e88       0x18 CMakeFiles/test.elf.dir/Src/system_stm32f1xx.c.obj
 .debug_ranges  0x00000ea0       0x20 CMakeFiles/test.elf.dir/Src/usart.c.obj
 .debug_ranges  0x00000ec0       0x20 CMakeFiles/test.elf.dir/Startup/startup_stm32f103c8tx.s.obj

.debug_line     0x00000000     0xda24
 .debug_line    0x00000000      0x5ca CMakeFiles/test.elf.dir/Drivers/STM32F1xx_HAL_Driver/Src/stm32f1xx_hal.c.obj
 .debug_line    0x000005ca      0x6b7 CMakeFiles/test.elf.dir/Drivers/STM32F1xx_HAL_Driver/Src/stm32f1xx_hal_cortex.c.obj
 .debug_line    0x00000c81      0x65f CMakeFiles/test.elf.dir/Drivers/STM32F1xx_HAL_Driver/Src/stm32f1xx_hal_gpio.c.obj
 .debug_line    0x000012e0      0xc9c CMakeFiles/test.elf.dir/Drivers/STM32F1xx_HAL_Driver/Src/stm32f1xx_hal_rcc.c.obj
 .debug_line    0x00001f7c     0x443f CMakeFiles/test.elf.dir/Drivers/STM32F1xx_HAL_Driver/Src/stm32f1xx_hal_uart.c.obj
 .debug_line    0x000063bb      0x459 CMakeFiles/test.elf.dir/FreeRTOS_M3_gcc/portable/ARM_CM3/port.c.obj
 .debug_line    0x00006814      0x740 CMakeFiles/test.elf.dir/FreeRTOS_M3_gcc/portable/MemMang/heap_4.c.obj
 .debug_line    0x00006f54      0x3b2 CMakeFiles/test.elf.dir/FreeRTOS_M3_gcc/src/list.c.obj
 .debug_line    0x00007306     0x1738 CMakeFiles/test.elf.dir/FreeRTOS_M3_gcc/src/queue.c.obj
 .debug_line    0x00008a3e     0x2cd6 CMakeFiles/test.elf.dir/FreeRTOS_M3_gcc/src/tasks.c.obj
 .debug_line    0x0000b714      0xa25 CMakeFiles/test.elf.dir/FreeRTOS_M3_gcc/src/timers.c.obj
 .debug_line    0x0000c139      0x26d CMakeFiles/test.elf.dir/Src/gpio.c.obj
 .debug_line    0x0000c3a6      0x52c CMakeFiles/test.elf.dir/Src/main.c.obj
 .debug_line    0x0000c8d2      0x1d7 CMakeFiles/test.elf.dir/Src/stm32f1xx_hal_msp.c.obj
 .debug_line    0x0000caa9      0x223 CMakeFiles/test.elf.dir/Src/stm32f1xx_it.c.obj
 .debug_line    0x0000cccc      0x45b CMakeFiles/test.elf.dir/Src/syscalls.c.obj
 .debug_line    0x0000d127      0x23b CMakeFiles/test.elf.dir/Src/sysmem.c.obj
 .debug_line    0x0000d362      0x2a1 CMakeFiles/test.elf.dir/Src/system_stm32f1xx.c.obj
 .debug_line    0x0000d603      0x385 CMakeFiles/test.elf.dir/Src/usart.c.obj
 .debug_line    0x0000d988       0x9c CMakeFiles/test.elf.dir/Startup/startup_stm32f103c8tx.s.obj

.debug_str      0x00000000     0x4220
 .debug_str     0x00000000      0x7ff CMakeFiles/test.elf.dir/Drivers/STM32F1xx_HAL_Driver/Src/stm32f1xx_hal.c.obj
                                0x858 (size before relaxing)
 .debug_str     0x000007ff      0x3f4 CMakeFiles/test.elf.dir/Drivers/STM32F1xx_HAL_Driver/Src/stm32f1xx_hal_cortex.c.obj
                                0x907 (size before relaxing)
 .debug_str     0x00000bf3      0x1ea CMakeFiles/test.elf.dir/Drivers/STM32F1xx_HAL_Driver/Src/stm32f1xx_hal_gpio.c.obj
                                0x434 (size before relaxing)
 .debug_str     0x00000ddd      0x361 CMakeFiles/test.elf.dir/Drivers/STM32F1xx_HAL_Driver/Src/stm32f1xx_hal_rcc.c.obj
                                0x65f (size before relaxing)
 .debug_str     0x0000113e      0xa41 CMakeFiles/test.elf.dir/Drivers/STM32F1xx_HAL_Driver/Src/stm32f1xx_hal_uart.c.obj
                                0xd28 (size before relaxing)
 .debug_str     0x00001b7f      0x1dc CMakeFiles/test.elf.dir/FreeRTOS_M3_gcc/portable/ARM_CM3/port.c.obj
                                0x394 (size before relaxing)
 .debug_str     0x00001d5b      0x342 CMakeFiles/test.elf.dir/FreeRTOS_M3_gcc/portable/MemMang/heap_4.c.obj
                                0x535 (size before relaxing)
 .debug_str     0x0000209d      0x14b CMakeFiles/test.elf.dir/FreeRTOS_M3_gcc/src/list.c.obj
                                0x315 (size before relaxing)
 .debug_str     0x000021e8      0x915 CMakeFiles/test.elf.dir/FreeRTOS_M3_gcc/src/queue.c.obj
                                0xc83 (size before relaxing)
 .debug_str     0x00002afd      0xc80 CMakeFiles/test.elf.dir/FreeRTOS_M3_gcc/src/tasks.c.obj
                               0x12f2 (size before relaxing)
 .debug_str     0x0000377d      0x53c CMakeFiles/test.elf.dir/FreeRTOS_M3_gcc/src/timers.c.obj
                                0x9d0 (size before relaxing)
 .debug_str     0x00003cb9       0x46 CMakeFiles/test.elf.dir/Src/gpio.c.obj
                                0x2ac (size before relaxing)
 .debug_str     0x00003cff       0xb0 CMakeFiles/test.elf.dir/Src/main.c.obj
                                0x84a (size before relaxing)
 .debug_str     0x00003daf       0x36 CMakeFiles/test.elf.dir/Src/stm32f1xx_hal_msp.c.obj
                                0x24e (size before relaxing)
 .debug_str     0x00003de5       0xa6 CMakeFiles/test.elf.dir/Src/stm32f1xx_it.c.obj
                                0x271 (size before relaxing)
 .debug_str     0x00003e8b      0x221 CMakeFiles/test.elf.dir/Src/syscalls.c.obj
                                0x41b (size before relaxing)
 .debug_str     0x000040ac       0x8b CMakeFiles/test.elf.dir/Src/sysmem.c.obj
                                0x247 (size before relaxing)
 .debug_str     0x00004137       0x68 CMakeFiles/test.elf.dir/Src/system_stm32f1xx.c.obj
                                0x283 (size before relaxing)
 .debug_str     0x0000419f       0x35 CMakeFiles/test.elf.dir/Src/usart.c.obj
                                0x6ef (size before relaxing)
 .debug_str     0x000041d4       0x4c CMakeFiles/test.elf.dir/Startup/startup_stm32f103c8tx.s.obj
                                 0x7c (size before relaxing)

.comment        0x00000000       0x49
 .comment       0x00000000       0x49 CMakeFiles/test.elf.dir/Drivers/STM32F1xx_HAL_Driver/Src/stm32f1xx_hal.c.obj
                                 0x4a (size before relaxing)
 .comment       0x00000049       0x4a CMakeFiles/test.elf.dir/Drivers/STM32F1xx_HAL_Driver/Src/stm32f1xx_hal_cortex.c.obj
 .comment       0x00000049       0x4a CMakeFiles/test.elf.dir/Drivers/STM32F1xx_HAL_Driver/Src/stm32f1xx_hal_gpio.c.obj
 .comment       0x00000049       0x4a CMakeFiles/test.elf.dir/Drivers/STM32F1xx_HAL_Driver/Src/stm32f1xx_hal_rcc.c.obj
 .comment       0x00000049       0x4a CMakeFiles/test.elf.dir/Drivers/STM32F1xx_HAL_Driver/Src/stm32f1xx_hal_uart.c.obj
 .comment       0x00000049       0x4a CMakeFiles/test.elf.dir/FreeRTOS_M3_gcc/portable/ARM_CM3/port.c.obj
 .comment       0x00000049       0x4a CMakeFiles/test.elf.dir/FreeRTOS_M3_gcc/portable/MemMang/heap_4.c.obj
 .comment       0x00000049       0x4a CMakeFiles/test.elf.dir/FreeRTOS_M3_gcc/src/list.c.obj
 .comment       0x00000049       0x4a CMakeFiles/test.elf.dir/FreeRTOS_M3_gcc/src/queue.c.obj
 .comment       0x00000049       0x4a CMakeFiles/test.elf.dir/FreeRTOS_M3_gcc/src/tasks.c.obj
 .comment       0x00000049       0x4a CMakeFiles/test.elf.dir/FreeRTOS_M3_gcc/src/timers.c.obj
 .comment       0x00000049       0x4a CMakeFiles/test.elf.dir/Src/gpio.c.obj
 .comment       0x00000049       0x4a CMakeFiles/test.elf.dir/Src/main.c.obj
 .comment       0x00000049       0x4a CMakeFiles/test.elf.dir/Src/stm32f1xx_hal_msp.c.obj
 .comment       0x00000049       0x4a CMakeFiles/test.elf.dir/Src/stm32f1xx_it.c.obj
 .comment       0x00000049       0x4a CMakeFiles/test.elf.dir/Src/syscalls.c.obj
 .comment       0x00000049       0x4a CMakeFiles/test.elf.dir/Src/sysmem.c.obj
 .comment       0x00000049       0x4a CMakeFiles/test.elf.dir/Src/system_stm32f1xx.c.obj
 .comment       0x00000049       0x4a CMakeFiles/test.elf.dir/Src/usart.c.obj

.debug_frame    0x00000000     0x2940
 .debug_frame   0x00000000      0x1cc CMakeFiles/test.elf.dir/Drivers/STM32F1xx_HAL_Driver/Src/stm32f1xx_hal.c.obj
 .debug_frame   0x000001cc      0x118 CMakeFiles/test.elf.dir/Drivers/STM32F1xx_HAL_Driver/Src/stm32f1xx_hal_cortex.c.obj
 .debug_frame   0x000002e4       0xe4 CMakeFiles/test.elf.dir/Drivers/STM32F1xx_HAL_Driver/Src/stm32f1xx_hal_gpio.c.obj
 .debug_frame   0x000003c8      0x184 CMakeFiles/test.elf.dir/Drivers/STM32F1xx_HAL_Driver/Src/stm32f1xx_hal_rcc.c.obj
 .debug_frame   0x0000054c      0x5d8 CMakeFiles/test.elf.dir/Drivers/STM32F1xx_HAL_Driver/Src/stm32f1xx_hal_uart.c.obj
 .debug_frame   0x00000b24       0xd8 CMakeFiles/test.elf.dir/FreeRTOS_M3_gcc/portable/ARM_CM3/port.c.obj
 .debug_frame   0x00000bfc       0xec CMakeFiles/test.elf.dir/FreeRTOS_M3_gcc/portable/MemMang/heap_4.c.obj
 .debug_frame   0x00000ce8       0x70 CMakeFiles/test.elf.dir/FreeRTOS_M3_gcc/src/list.c.obj
 .debug_frame   0x00000d58      0x470 CMakeFiles/test.elf.dir/FreeRTOS_M3_gcc/src/queue.c.obj
 .debug_frame   0x000011c8      0x6f4 CMakeFiles/test.elf.dir/FreeRTOS_M3_gcc/src/tasks.c.obj
 .debug_frame   0x000018bc      0x2dc CMakeFiles/test.elf.dir/FreeRTOS_M3_gcc/src/timers.c.obj
 .debug_frame   0x00001b98       0x38 CMakeFiles/test.elf.dir/Src/gpio.c.obj
 .debug_frame   0x00001bd0       0xd4 CMakeFiles/test.elf.dir/Src/main.c.obj
 .debug_frame   0x00001ca4       0x28 CMakeFiles/test.elf.dir/Src/stm32f1xx_hal_msp.c.obj
 .debug_frame   0x00001ccc       0x88 CMakeFiles/test.elf.dir/Src/stm32f1xx_it.c.obj
 .debug_frame   0x00001d54      0x190 CMakeFiles/test.elf.dir/Src/syscalls.c.obj
 .debug_frame   0x00001ee4       0x28 CMakeFiles/test.elf.dir/Src/sysmem.c.obj
 .debug_frame   0x00001f0c       0x30 CMakeFiles/test.elf.dir/Src/system_stm32f1xx.c.obj
 .debug_frame   0x00001f3c       0x60 CMakeFiles/test.elf.dir/Src/usart.c.obj
 .debug_frame   0x00001f9c       0x20 d:/clion/tools/gcc-arm-none-eabi-10.3-2021.10-win32/gcc-arm-none-eabi-10.3-2021.10/bin/../lib/gcc/arm-none-eabi/10.3.1/../../../../arm-none-eabi/lib/thumb/v7-m/nofp\libg.a(lib_a-errno.o)
 .debug_frame   0x00001fbc       0x2c d:/clion/tools/gcc-arm-none-eabi-10.3-2021.10-win32/gcc-arm-none-eabi-10.3-2021.10/bin/../lib/gcc/arm-none-eabi/10.3.1/../../../../arm-none-eabi/lib/thumb/v7-m/nofp\libg.a(lib_a-init.o)
 .debug_frame   0x00001fe8       0x2c d:/clion/tools/gcc-arm-none-eabi-10.3-2021.10-win32/gcc-arm-none-eabi-10.3-2021.10/bin/../lib/gcc/arm-none-eabi/10.3.1/../../../../arm-none-eabi/lib/thumb/v7-m/nofp\libg.a(lib_a-memset.o)
 .debug_frame   0x00002014       0x48 d:/clion/tools/gcc-arm-none-eabi-10.3-2021.10-win32/gcc-arm-none-eabi-10.3-2021.10/bin/../lib/gcc/arm-none-eabi/10.3.1/../../../../arm-none-eabi/lib/thumb/v7-m/nofp\libg.a(lib_a-puts.o)
 .debug_frame   0x0000205c       0x20 d:/clion/tools/gcc-arm-none-eabi-10.3-2021.10-win32/gcc-arm-none-eabi-10.3-2021.10/bin/../lib/gcc/arm-none-eabi/10.3.1/../../../../arm-none-eabi/lib/thumb/v7-m/nofp\libg.a(lib_a-strlen-stub.o)
 .debug_frame   0x0000207c       0x5c d:/clion/tools/gcc-arm-none-eabi-10.3-2021.10-win32/gcc-arm-none-eabi-10.3-2021.10/bin/../lib/gcc/arm-none-eabi/10.3.1/../../../../arm-none-eabi/lib/thumb/v7-m/nofp\libg.a(lib_a-__call_atexit.o)
 .debug_frame   0x000020d8       0x20 d:/clion/tools/gcc-arm-none-eabi-10.3-2021.10-win32/gcc-arm-none-eabi-10.3-2021.10/bin/../lib/gcc/arm-none-eabi/10.3.1/../../../../arm-none-eabi/lib/thumb/v7-m/nofp\libg.a(lib_a-atexit.o)
 .debug_frame   0x000020f8      0x154 d:/clion/tools/gcc-arm-none-eabi-10.3-2021.10-win32/gcc-arm-none-eabi-10.3-2021.10/bin/../lib/gcc/arm-none-eabi/10.3.1/../../../../arm-none-eabi/lib/thumb/v7-m/nofp\libg.a(lib_a-findfp.o)
 .debug_frame   0x0000224c       0x34 d:/clion/tools/gcc-arm-none-eabi-10.3-2021.10-win32/gcc-arm-none-eabi-10.3-2021.10/bin/../lib/gcc/arm-none-eabi/10.3.1/../../../../arm-none-eabi/lib/thumb/v7-m/nofp\libg.a(lib_a-fini.o)
 .debug_frame   0x00002280       0x8c d:/clion/tools/gcc-arm-none-eabi-10.3-2021.10-win32/gcc-arm-none-eabi-10.3-2021.10/bin/../lib/gcc/arm-none-eabi/10.3.1/../../../../arm-none-eabi/lib/thumb/v7-m/nofp\libg.a(lib_a-freer.o)
 .debug_frame   0x0000230c       0x64 d:/clion/tools/gcc-arm-none-eabi-10.3-2021.10-win32/gcc-arm-none-eabi-10.3-2021.10/bin/../lib/gcc/arm-none-eabi/10.3.1/../../../../arm-none-eabi/lib/thumb/v7-m/nofp\libg.a(lib_a-fvwrite.o)
 .debug_frame   0x00002370       0x54 d:/clion/tools/gcc-arm-none-eabi-10.3-2021.10-win32/gcc-arm-none-eabi-10.3-2021.10/bin/../lib/gcc/arm-none-eabi/10.3.1/../../../../arm-none-eabi/lib/thumb/v7-m/nofp\libg.a(lib_a-fwalk.o)
 .debug_frame   0x000023c4       0xb0 d:/clion/tools/gcc-arm-none-eabi-10.3-2021.10-win32/gcc-arm-none-eabi-10.3-2021.10/bin/../lib/gcc/arm-none-eabi/10.3.1/../../../../arm-none-eabi/lib/thumb/v7-m/nofp\libg.a(lib_a-lock.o)
 .debug_frame   0x00002474       0x4c d:/clion/tools/gcc-arm-none-eabi-10.3-2021.10-win32/gcc-arm-none-eabi-10.3-2021.10/bin/../lib/gcc/arm-none-eabi/10.3.1/../../../../arm-none-eabi/lib/thumb/v7-m/nofp\libg.a(lib_a-mallocr.o)
 .debug_frame   0x000024c0       0x28 d:/clion/tools/gcc-arm-none-eabi-10.3-2021.10-win32/gcc-arm-none-eabi-10.3-2021.10/bin/../lib/gcc/arm-none-eabi/10.3.1/../../../../arm-none-eabi/lib/thumb/v7-m/nofp\libg.a(lib_a-memchr-stub.o)
 .debug_frame   0x000024e8       0x40 d:/clion/tools/gcc-arm-none-eabi-10.3-2021.10-win32/gcc-arm-none-eabi-10.3-2021.10/bin/../lib/gcc/arm-none-eabi/10.3.1/../../../../arm-none-eabi/lib/thumb/v7-m/nofp\libg.a(lib_a-memmove.o)
 .debug_frame   0x00002528       0x30 d:/clion/tools/gcc-arm-none-eabi-10.3-2021.10-win32/gcc-arm-none-eabi-10.3-2021.10/bin/../lib/gcc/arm-none-eabi/10.3.1/../../../../arm-none-eabi/lib/thumb/v7-m/nofp\libg.a(lib_a-mlock.o)
 .debug_frame   0x00002558       0x48 d:/clion/tools/gcc-arm-none-eabi-10.3-2021.10-win32/gcc-arm-none-eabi-10.3-2021.10/bin/../lib/gcc/arm-none-eabi/10.3.1/../../../../arm-none-eabi/lib/thumb/v7-m/nofp\libg.a(lib_a-reallocr.o)
 .debug_frame   0x000025a0       0x2c d:/clion/tools/gcc-arm-none-eabi-10.3-2021.10-win32/gcc-arm-none-eabi-10.3-2021.10/bin/../lib/gcc/arm-none-eabi/10.3.1/../../../../arm-none-eabi/lib/thumb/v7-m/nofp\libg.a(lib_a-sbrkr.o)
 .debug_frame   0x000025cc       0x8c d:/clion/tools/gcc-arm-none-eabi-10.3-2021.10-win32/gcc-arm-none-eabi-10.3-2021.10/bin/../lib/gcc/arm-none-eabi/10.3.1/../../../../arm-none-eabi/lib/thumb/v7-m/nofp\libg.a(lib_a-stdio.o)
 .debug_frame   0x00002658       0x2c d:/clion/tools/gcc-arm-none-eabi-10.3-2021.10-win32/gcc-arm-none-eabi-10.3-2021.10/bin/../lib/gcc/arm-none-eabi/10.3.1/../../../../arm-none-eabi/lib/thumb/v7-m/nofp\libg.a(lib_a-writer.o)
 .debug_frame   0x00002684       0x2c d:/clion/tools/gcc-arm-none-eabi-10.3-2021.10-win32/gcc-arm-none-eabi-10.3-2021.10/bin/../lib/gcc/arm-none-eabi/10.3.1/../../../../arm-none-eabi/lib/thumb/v7-m/nofp\libg.a(lib_a-wsetup.o)
 .debug_frame   0x000026b0       0x34 d:/clion/tools/gcc-arm-none-eabi-10.3-2021.10-win32/gcc-arm-none-eabi-10.3-2021.10/bin/../lib/gcc/arm-none-eabi/10.3.1/../../../../arm-none-eabi/lib/thumb/v7-m/nofp\libg.a(lib_a-__atexit.o)
 .debug_frame   0x000026e4       0x2c d:/clion/tools/gcc-arm-none-eabi-10.3-2021.10-win32/gcc-arm-none-eabi-10.3-2021.10/bin/../lib/gcc/arm-none-eabi/10.3.1/../../../../arm-none-eabi/lib/thumb/v7-m/nofp\libg.a(lib_a-closer.o)
 .debug_frame   0x00002710       0x3c d:/clion/tools/gcc-arm-none-eabi-10.3-2021.10-win32/gcc-arm-none-eabi-10.3-2021.10/bin/../lib/gcc/arm-none-eabi/10.3.1/../../../../arm-none-eabi/lib/thumb/v7-m/nofp\libg.a(lib_a-fclose.o)
 .debug_frame   0x0000274c       0x70 d:/clion/tools/gcc-arm-none-eabi-10.3-2021.10-win32/gcc-arm-none-eabi-10.3-2021.10/bin/../lib/gcc/arm-none-eabi/10.3.1/../../../../arm-none-eabi/lib/thumb/v7-m/nofp\libg.a(lib_a-fflush.o)
 .debug_frame   0x000027bc       0x2c d:/clion/tools/gcc-arm-none-eabi-10.3-2021.10-win32/gcc-arm-none-eabi-10.3-2021.10/bin/../lib/gcc/arm-none-eabi/10.3.1/../../../../arm-none-eabi/lib/thumb/v7-m/nofp\libg.a(lib_a-lseekr.o)
 .debug_frame   0x000027e8       0x70 d:/clion/tools/gcc-arm-none-eabi-10.3-2021.10-win32/gcc-arm-none-eabi-10.3-2021.10/bin/../lib/gcc/arm-none-eabi/10.3.1/../../../../arm-none-eabi/lib/thumb/v7-m/nofp\libg.a(lib_a-makebuf.o)
 .debug_frame   0x00002858       0x2c d:/clion/tools/gcc-arm-none-eabi-10.3-2021.10-win32/gcc-arm-none-eabi-10.3-2021.10/bin/../lib/gcc/arm-none-eabi/10.3.1/../../../../arm-none-eabi/lib/thumb/v7-m/nofp\libg.a(lib_a-readr.o)
 .debug_frame   0x00002884       0x64 d:/clion/tools/gcc-arm-none-eabi-10.3-2021.10-win32/gcc-arm-none-eabi-10.3-2021.10/bin/../lib/gcc/arm-none-eabi/10.3.1/../../../../arm-none-eabi/lib/thumb/v7-m/nofp\libg.a(lib_a-reent.o)
 .debug_frame   0x000028e8       0x2c d:/clion/tools/gcc-arm-none-eabi-10.3-2021.10-win32/gcc-arm-none-eabi-10.3-2021.10/bin/../lib/gcc/arm-none-eabi/10.3.1/../../../../arm-none-eabi/lib/thumb/v7-m/nofp\libg.a(lib_a-fstatr.o)
 .debug_frame   0x00002914       0x2c d:/clion/tools/gcc-arm-none-eabi-10.3-2021.10-win32/gcc-arm-none-eabi-10.3-2021.10/bin/../lib/gcc/arm-none-eabi/10.3.1/../../../../arm-none-eabi/lib/thumb/v7-m/nofp\libg.a(lib_a-isattyr.o)
